:100000000C9472000C9491000C9491000C9491004B
:100010000C94C6110C9491000C9491000C949100D6
:100020000C9491000C9491000C9491000C9491000C
:100030000C9491000C9491000C9491000C949100FC
:100040000C9491000C9491000C9491000C949100EC
:100050000C9491000C9491000C9491000C949100DC
:100060000C9491000C9491000C9491000C949100CC
:100070000C9491000C9491000C9491000C949100BC
:100080000C9491000C9491000C9491000C949100AC
:100090000C9491000C9491000C9491000C9491009C
:1000A0000C9491000C9491000C9491000C9491008C
:1000B0000C9491000C9491000C9491000C9491007C
:1000C0000C9491000C9491000C9491000C9491006C
:1000D0000C9491000C9491000C9491000C9491005C
:1000E0000C94910011241FBECFEFD1E2DEBFCDBF33
:1000F00013E0A0E0B2E0E0EBF5E300E00BBF02C0EC
:1001000007900D92A831B107D9F713E0A8E1B3E049
:1001100001C01D92A43CB107E1F70E94F0110C94BC
:10012000D61A0C940000FFCF0895803241F0E09180
:10013000BD03F091BE038081897F81608083089533
:100140008091B0039091B10380629093B10380934A
:10015000B0030895089508950895089508951F938C
:10016000DF93CF930F92CDB7DEB780915C03909170
:100170005D03089660E20E94E5120E948F0AE091FA
:10018000BD03F091BE03808180FF0CC01092B503C7
:100190001092B4031092B7031092B60380818E7F41
:1001A0008260808380915C0390915D0305960E943C
:1001B0000A13182F80915C0390915D0304960E94AE
:1001C0000A13982F80FF04C0812F807F803E19F092
:1001D0001093BC03FFCF892F80738031D1F0803220
:1001E00019F08823B1F00DC0E091BD03F091BE037A
:1001F00080818670863069F486EB93E00E94B304B8
:1002000008C080915C0390915D0304960E940A13DC
:10021000FFCF8091B0039091B10385FF34C08F7DF3
:100220009093B1038093B003CE0101960E943F04E6
:10023000BC01009741F1E091BD03F091BE03478DF1
:1002400084EB93E050E00E9448122091B403822F87
:100250006AE00E94931A92B9822F64E60E94931A70
:10026000892F6AE00E94931A88B9822F84568436B7
:1002700010F4449A08C0283C18F088B1806302C08A
:1002800088B18F7C88B9E091BD03F091BE03808175
:1002900083FF10C086EB93E00E94B3040E94AF027C
:1002A000882341F0E091BD03F091BE038081877FF8
:1002B000846080830F90CF91DF911F910895EF921A
:1002C000FF920F931F93DF93CF93CDB7DEB7C1504B
:1002D000D1400FB6F894DEBF0FBECDBF00EB13E0E8
:1002E00088E0D8011D928A95E9F710925D0310927B
:1002F0005C03EEE5F3E0F093AF03E093AE0389E136
:1003000093E09093BE038093BD0380E5DF011D92CF
:100310008A95E9F7E091BD03F091BE0381E4DF0126
:100320001D928A95E9F7E091BD03F091BE0381E04B
:1003300080830E9416030E9426020E942F020E94C0
:10034000A5110E940606019709F04AC088E060E006
:1003500076EFA8014E5F5F4F0E94F5067C01CE014B
:10036000489666E170E04AEE50E00E9448128091A3
:100370005C0390915D03C3960E940A13182F80912D
:100380005C0390915D03C4960E940A13682F70E08D
:1003900084E0660F771F8A95E1F780915C03909166
:1003A0005D03680F791FCE010196412F50E00E9436
:1003B0004812B1E0EB16F10491F40E94AB110E94D7
:1003C000EE05CF5FDE4F0FB6F894DEBF0FBECDBF98
:1003D000CF91DF911F910F91FF90EF900895FFCF84
:1003E000FFCFCF93DF93482F8091B203681731F589
:1003F000A3EBB3E0842F9C01F90120E030E008C0BA
:100400009C918081981711F021E030E0319611968F
:100410008E2F841B8617A0F3232B81F480E090E0BD
:100420000E94BC02EC018130910551F0E091BD03C6
:10043000F091BE0380818860808302C0C1E0D0E07B
:100440000E942E02CE01DF91CF91089581E080932A
:10045000B203809100028093B30308950895089534
:100460000F931F930091BD031091BE03F80180818B
:100470008F7E80830E94DA03015C1F4FF801918315
:1004800080831F910F9108950F931F93CF93DF9354
:10049000182F022F982F80E0C62FD0E0C82BD92B21
:1004A0000E948006E091BD03F091BE038185928594
:1004B000C817D90761F1808184FD29C0CF010D964D
:1004C000FC0186E0DF011D928A95E9F71D3F11F0DE
:1004D00040E001C042E0E091BD03F091BE038081A5
:1004E00080618083CF010D9660E0202F0E94D604AA
:1004F0009C01E091BD03F091BE038130910519F498
:10050000D287C18706C080818F7E808302C022E0AF
:1005100030E0C901DF91CF911F910F9108950F93A2
:100520001F930091BD031091BE030E94DA03015C8A
:100530001F4FF80191838083E091BD03F091BE03CA
:10054000FF9680819181892B61F388EF68EF40E00D
:1005500050E020E00E9444021F910F9108958FEF18
:1005600060E040E050E020E00E94440220E001977B
:1005700009F421E0822F0895FF920F931F93082F13
:10058000F92E10E00DC08DEF62E240E050E020E077
:100590000E944402019721F4802F9F2D9C0105C0E9
:1005A0001F5F1B3081F721E030E0C9011F910F91DF
:1005B000FF900895FF920F931F93082FF92E10E0DC
:1005C0000DC08CEF60E040E050E020E00E9444026B
:1005D000019721F4802F9F2D9C0105C01F5F1B30C8
:1005E00081F72CE130E0C9011F910F91FF90089530
:1005F000FF920F931F93082FF92E10E00DC08BEF81
:1006000060E040E050E020E00E944402019721F4C5
:10061000802F9F2D9C0105C01F5F1B3081F72CE1AF
:1006200030E0C9011F910F91FF900895E091BD0343
:10063000F091BE03168E158E0895CF93DF93E0914F
:10064000BD03F091BE03168E158E6A3019F0C6E117
:10065000D0E00FC0FC01908521858781887F39F427
:10066000992329F4222319F4C1E0D0E002C0C2E2A8
:10067000D0E080915C0390915D0304960E940A1380
:100680008073803221F4C130D10549F40CC0C130EF
:10069000D10529F481E090E00E94F80203C0CE0168
:1006A0000E94DA02EC01CE01DF91CF9108950F9301
:1006B0001F93CF93DF93DC01162FC091BD03D09120
:1006C000BE03613009F057C060E070E00FEF3C916D
:1006D000432F50E0CA0180739070892BA1F0832FC3
:1006E0008F708F5F35FF07C036FD02C0982F02C0A4
:1006F000982F990F690F44FF03C046FD880F780FAC
:10070000119621E026C037FD02C020E00AC01196F4
:100710008C911197982F9F739F5F86FD990F690F9A
:1007200021E046FF0BC02F5FFD01E20FF11D80812C
:10073000982F9F739F5F86FD990F790F832F8F707E
:100740008F3029F08F5F280FA20FB11D02C008A3C0
:100750000F8F121B09F0BBCF733010F4633030F0F1
:100760008FEF88A38F8F22E130E00AC078A36F8FCC
:1007700021E030E005C08FEF88A38F8F28E130E0C3
:10078000C901DF91CF911F910F91089581E00895E4
:10079000E091BD03F091BE0321A132A130952195D6
:1007A0003F4F83A194A1281B390B2056304FC9011C
:1007B0000895089580915C0390915D030C960E94CA
:1007C0000A13282F30E0C90183709070019739F423
:1007D000E091BD03F091BE0323AD34AD0EC02C708B
:1007E00030702430310519F020E030E006C0E0918F
:1007F000BD03F091BE0325AD36ADC9010895E0916A
:10080000BD03F091BE0383AD94AD03960E940A131D
:100810008F3F49F4E091BD03F091BE0385AD96ADE5
:1008200003960E940A13089580915C0390915D03E2
:1008300008960E940A1390E08073907080329105B0
:1008400079F08033910599F0409719F020E030E07D
:1008500014C0E091BD03F091BE0325A936A90DC0D7
:10086000E091BD03F091BE0327A930AD06C0E09131
:10087000BD03F091BE0321AD32ADC90108950F93C0
:100880001F938C0180915C0390915D030B960E94F5
:100890000A138C70F801808380915C0390915D0352
:1008A0000A960E940A1390E080739070803291053E
:1008B00079F08033910599F0409719F020E030E00D
:1008C00014C0E091BD03F091BE0327A530A90DC06F
:1008D000E091BD03F091BE0321A932A906C0E091C9
:1008E000BD03F091BE0323A934A9C9011F910F9143
:1008F0000895CF93DF93EC011982188280915C03F5
:1009000090915D0305960E940A1390E0807F90709D
:10091000803C910591F0813C910524F4803B910548
:10092000C9F407C0803D910561F0803E910591F4C6
:100930000CC08881998190610BC0888199819062F7
:1009400007C088819981906403C0888199819068EB
:100950009983888386E08A8381E08B8381E18C831D
:10096000DF91CF9108950F931F93DF93CF930F9251
:10097000CDB7DEB78C010E941404009789F0E09196
:10098000BD03F091BE0340A1B80150E00E947F1268
:1009900080915C0390915D0309960E940A138983FC
:1009A0000F90CF91DF911F910F910895CF92DF9219
:1009B000FF920F931F93CF93DF936C01062FF42EBA
:1009C000122FC091BD03D091BE03EF96888199810B
:1009D000892B21F40E94DA0399838883C091BD0397
:1009E000D091BE03EF9688819981892B09F49DC02F
:1009F00080915C0390915D0304960E940A138073BA
:100A0000803271F4113061F480915C0390915D0348
:100A100004960E940A1382FF03C0C2E6D0E002C01F
:100A2000C1E0D0E0002319F0C5E6D0E084C0C130B9
:100A3000D10509F080C081E0F81619F4C6E6D0E0CF
:100A40007AC00091BD031091BE0380915C03909128
:100A50005D030C960E940A13282F30E0C9018370B1
:100A600090700197D9F4E091BD03F091BE0383AD7E
:100A700094AD0696B60140E050E00E947F1280914E
:100A80005C0390915D03849666E00E94E512E0911C
:100A9000BD03F091BE0383AD94AD1FC02C703070C8
:100AA00024303105E9F4E091BD03F091BE0385AD3A
:100AB00096AD0696B60140E050E00E947F1280910C
:100AC0005C0390915D03859666E00E94E512E091DB
:100AD000BD03F091BE0385AD96AD6F2D0E94E5126A
:100AE00080915C0390915D030D960E940A1390E043
:100AF000837090708130910529F0029751F080E069
:100B000090E00DC0E091BD03F091BE0383AD94ADC4
:100B100006C0E091BD03F091BE0385AD96AD015CCA
:100B20001F4FF8019183808306C00E94DA039983E6
:100B30008883C4E6D0E0CE01DF91CF911F910F9161
:100B4000FF90DF90CF9008951F9380915C03909168
:100B50005D03089664E00E94E51210E00CC08091ED
:100B60005C0390915D0304960E940A1380FD03C00C
:100B700021E030E005C01F5F1B3089F720E130E045
:100B8000C9011F91089580915C0390915D03E091EC
:100B9000BD03F091BE034A96678D0E94E5128091D5
:100BA0005C0390915D03E091BD03F091BE034E960E
:100BB00060A10E94E512089580915C0390915D030D
:100BC000089664E00E94E51280915C0390915D03B9
:100BD00004960E940A1380FDF7CF08950F931F9388
:100BE00080915C0390915D03089661E00E94E5129C
:100BF0000091BD031091BE030E94DA03015C1F4FF8
:100C0000F801918380831F910F9108958F929F9295
:100C1000AF92BF92CF92DF92EF92FF920F931F930A
:100C2000CF93DF9380915C0390915D030C9665E810
:100C30000E94E512E0905C03F0905D0326E130E055
:100C4000E20EF31EC0E0D0E087010F5F1F4FC70127
:100C50006D2F0E94E51282E090E0E80EF91EC801B7
:100C60006C2F0E94E512219697E0C53FD90761F7E6
:100C7000E0905C03F0905D0326E130E0E20EF31EAD
:100C800021E0A22EB12CCC24DD2490E4892E9CE915
:100C9000992E87010F5F1F4FC7010E940A13D82F9B
:100CA000C0E082E090E0E80EF91EC8010E940A133D
:100CB0009E01280F311D2C153D0559F02F9AC401B6
:100CC0000197F1F72F98C4010197F1F784EFA82E4F
:100CD000B12C34EFC31637E0D30621F00894C11CC1
:100CE000D11CD7CFC501DF91CF911F910F91FF90FC
:100CF000EF90DF90CF90BF90AF909F908F9008952E
:100D0000E091BD03F091BE03808184FF13C0809108
:100D10005C0390915D0301960E940A1384FF0AC050
:100D20000E94300280915C0390915D03039660E124
:100D30000E94E51208950F931F93DF93CF9300D085
:100D400000D0CDB7DEB78C0160915C0370915D037C
:100D50006450704FCE01019644E050E00E9448126A
:100D60008A81F8018083898181838C8182838B8150
:100D700083830F900F900F900F90CF91DF911F9171
:100D80000F910895EF92FF920F931F93DF93CF93EC
:100D900000D000D0CDB7DEB78C017B0160915C0341
:100DA00070915D036450704FCE01019644E050E0B5
:100DB0000E9448129A8180E02981820F911DF801DA
:100DC000918380839C8180E02B81820F911DF701AC
:100DD000918380830F900F900F900F90CF91DF91B0
:100DE0001F910F91FF90EF9008956F927F928F92D5
:100DF0009F92AF92BF92CF92DF92EF92FF920F93AA
:100E00001F93CF93DF93F82ED62EE72E4A018091C1
:100E10005C0390915D0304960E940A1380FF04C056
:100E2000E0E1CE2ED12C6BC380915C0390915D03E9
:100E30000C9665E80E94E51280915C0390915D0339
:100E4000469660E04AEE5FE00E94B312E091BD0377
:100E5000F091BE0382E09DE39087878382E087A3C1
:100E6000E091BD03F091BE0380A7E091BD03F09136
:100E7000BE038AE081A7E091BD03F091BE0386E046
:100E800082A7E091BD03F091BE0301E003A7E091CA
:100E9000BD03F091BE0314A6E091BD03F091BE0323
:100EA00080EA9FE096A785A7E091AE03F091AF039B
:100EB0001082E091AE03F091AF031182E091AE0396
:100EC000F091AF031FEF1283E091AE03F091AF03F7
:100ED0001383E091AE03F091AF03118780915C031F
:100EE00090915D0360E00E94E51280915C03909117
:100EF0005D03019660E00E94E51280915C03909191
:100F00005D0302966FEF0E94E51280915C03909161
:100F10005D0303966FEF0E94E51280915C03909150
:100F20005D0309966FEF0E94E512E091AE03F09128
:100F3000AF0383E28783E091AE03F091AF0380ECCF
:100F40008683E091AE03F091AF0385E88487E0915A
:100F5000AE03F091AF03128A80915C0390915D0320
:100F6000079663E20E94E51280915C0390915D0315
:100F7000069660EC0E94E51280915C0390915D03FF
:100F80000C9665E80E94E51280915C0390915D03E8
:100F9000429660E00E94E512E091AE03F091AF034B
:100FA00092EC9583E091AE03F091AF038DEF8483D3
:100FB000E091BD03F091BE0395A3E091BD03F091D4
:100FC000BE0386A380915C0390915D03059662EC5D
:100FD0000E94E51280915C0390915D0304966DEF91
:100FE0000E94E512E091AE03F091AF0380E18287A9
:100FF000E091AE03F091AF038BE0838780915C03B7
:1010000090915D030A9660E10E94E51280915C0375
:1010100090915D030B966BE00E94E512E091AE03A8
:10102000F091AF03018FE091AE03F091AF03108F09
:10103000E091AE03F091AF0384E0878B80915C0375
:1010400090915D03805C9F4F6FEF0E94E512E091ED
:10105000AE03F091AF0311AFE091AE03F091AF0397
:10106000E3AEE091AE03F091AF03D2AE8F2D81508D
:101070008E3720F071E1C72ED12C41C2E091AE0332
:10108000F091AF03F68A34010894611C711CC3010E
:10109000F40160810E9457036C018130910509F0D1
:1010A0002EC2E091BD03F091BE0380A5853F20F0E4
:1010B00063E1C62ED12C28C087A1853F20F054E1E2
:1010C000C52ED12C21C082A586508F3E20F045E14F
:1010D000C42ED12C19C081A587508E3E20F036E158
:1010E000C32ED12C11C083A58150843F20F028E16C
:1010F000C22ED12C09C084A5882331F08450813FB1
:1011000018F097E1C92ED12CE091AE03F091AF0316
:10111000878184FF03C08DE1C82ED12C15AE81E0FC
:10112000C816D10409F0EBC1E091BD03F091BE03F4
:1011300080A5482F50E0415F5F4F407F87A1A82FD7
:10114000B0E01F96A07F82A5082F10E0015F1F4F1F
:10115000007F81A5C82FD0E02F96C07F83A5682F80
:1011600070E0615F7F4F607F84A5E82EFF248FE0F1
:1011700090E0E80EF91E80EF9FEFE822F922570178
:10118000E616F70608F45B01CD01840F951F9C015C
:10119000220F331F280F391F81A192A1820F931FA5
:1011A00092A381A3E091BD03F091BE039801220FA9
:1011B000331F81A192A1820F931F9E01220F331F23
:1011C000820F931F9B01220F331F820F931F8E0DDF
:1011D0009F1D8A0D9B1D92A381A325A536A52817C7
:1011E000390730F412A211A22AE1C22ED12C87C1F4
:1011F000E091AE03F091AF0385E0838FE091AE0301
:10120000F091AF0394E0569547959A95E1F7942FA6
:10121000838D840F848FE091AE03F091AF03848DB2
:10122000840F858FE091AE03F091AF03858D980F09
:10123000978FE091AE03F091AF0384E0B695A79548
:101240008A95E1F79A2F878D8A0F80A3E091AE03EC
:10125000F091AF0380A18A0F81A3E091AE03F091DA
:10126000AF0381A1980F96A3E091AE03F091AF0375
:10127000B4E016950795BA95E1F7902F86A1800FF7
:1012800087A3E091AE03F091AF0387A1980F92ABD3
:10129000E091AE03F091AF03A4E076956795AA952F
:1012A000E1F7962F82A9860F84ABE091AE03F0910F
:1012B000AF0384A9980F90ABE091AE03F091AF0318
:1012C00086E082A7E091AE03F091AF0374E0D6957B
:1012D000C7957A95E1F79C2F80A98C0F83A7E091A1
:1012E000AE03F091AF0383A5980F94A7E091AE03EE
:1012F000F091AF0316A6EF2869F0E091AE03F091EC
:10130000AF03950164E0369527956A95E1F784A5CA
:10131000820F86A7A091AE03B091AF03E091BD0309
:10132000F091BE03878D5A968C93A091AE03B09135
:10133000AF03E091BD03F091BE0380A15E968C9354
:10134000E091AE03F091AF0386E084A3E091AE0399
:10135000F091AF0385A3A091AE03B091AF03E091EC
:10136000BD03F091BE0383A5D1968C93A091AE03EB
:10137000B091AF03E091BD03F091BE0381A59F96AC
:101380008C93A091AE03B091AF03E091BD03F091B7
:10139000BE0384A59D968C93A091AE03B091AF033C
:1013A000E091BD03F091BE0381A598968C93E091E6
:1013B000AE03F091AF039501253F310510F024EF06
:1013C00030E021A780915C0390915D03A091BD0363
:1013D000B091BE03E091AE03F091AF03238D30E0F6
:1013E00054E0220F331F5A95E1F7280F391FD0968A
:1013F0003C932E939F97248D30E044E0220F331FBF
:101400004A95E1F7280F391FD2963C932E93D19736
:10141000258D30E004E0220F331F0A95E1F7280FF5
:10142000391FD4963C932E93D397278D30E014E048
:10143000220F331F1A95E1F7280F391FD6963C93D8
:101440002E93D59720A130E074E0220F331F7A95B8
:10145000E1F7280F391FD8963C932E93D79721A1F7
:1014600030E064E0220F331F6A95E1F7280F391F3F
:10147000DA963C932E93D99726A130E054E0220FC0
:10148000331F5A95E1F7280F391FDC963C932E93B2
:10149000DB9727A130E044E0220F331F4A95E1F7A4
:1014A000280F391FDE963C932E93DD97769646964D
:1014B000BF014AE250E00E947F1280915C0390914C
:1014C0005D03C396F40160810E94E51280915C0384
:1014D00090915D03C4960E940A1390E034E0880F57
:1014E000991F3A95E1F720915C0330915D03F40177
:1014F0004081820F931FB30150E00E947F12C6010A
:10150000DF91CF911F910F91FF90EF90DF90CF90DF
:10151000BF90AF909F908F907F906F900895EF92C3
:10152000FF920F931F93DF93CF930F92CDB7DEB748
:10153000E090BD03F090BE0380915C0390915D0349
:1015400001960E940A13182F80915C0390915D030D
:101550000E940A13312F20E090E0282B392BF7014D
:1015600036832583E091BD03F091BE03278130854A
:1015700085819681282339233683258321153105DA
:1015800009F46BC120FF02C00E949400E091BD03EA
:10159000F091BE038581968194FF13C00E943002B2
:1015A00080915C0390915D03039660E10E94E512D7
:1015B000E091BD03F091BE03858196819F7E968365
:1015C0008583E091BD03F091BE038581968193FFF1
:1015D00045C0977F96838583198280915C039091A3
:1015E0005D038F960E940A13F82E0091BD0310919F
:1015F000BE030D5E1F4F80915C0390915D03C0960A
:101600000E940A13682F70E024E0660F771F2A9566
:10161000E1F780915C0390915D03680F791FC80129
:101620004F2D50E00E9448128091BD039091BE035F
:1016300043966F2D0E941D0320915C0330915D0342
:10164000019719F4C9010E9602C0C9010F960E94B4
:101650000A1389838981813009F4BFCFE091BD03EA
:10166000F091BE038581968192FF69C09B7F96832E
:101670008583198280915C0390915D03C1960E94DD
:101680000A13F82E0091BD031091BE030D5E1F4F8B
:1016900080915C0390915D03C2960E940A13682FAB
:1016A00070E094E0660F771F9A95E1F780915C03F4
:1016B00090915D03680F791FC8014F2D50E00E9483
:1016C00048128091BD039091BE0343966F2D0E94F6
:1016D000F1018130910579F08130910520F1029777
:1016E00051F58091BD039091BE0343966F2D0E94EA
:1016F0005703019731F080915C0390915D0341960F
:1017000017C00E94C30580915C0390915D03C3964E
:101710006F2D0E94E51280915C0390915D03089605
:1017200060E10E94E51280915C0390915D03409618
:101730000E940A1389838981813009F49BCFE0914B
:10174000BD03F091BE03858183FF02C00E94AA0001
:10175000E091BD03F091BE03858181FF0AC08091B5
:101760005C0390915D0304960E940A1380730E94AB
:101770009500E091BD03F091BE038581968195FFB0
:1017800002C00E94A000E091BD03F091BE038581DC
:10179000968190FF09C080915C0390915D03CC9687
:1017A0000E940A130E94AC000091BD031091BE0379
:1017B000F8018581968191FF29C080915C03909109
:1017C0005D038E960E940A13682F70E084E0660F16
:1017D000771F8A95E1F780915C0390915D03680F14
:1017E000791FC801439644E050E00E94481280915E
:1017F000BD039091BE0343960E94AD0080915C03AF
:1018000090915D0344960E940A138983E091BD0381
:10181000F091BE03858182FF02C00E94AB008091DF
:101820005C0390915D03E091BD03F091BE030296CD
:1018300065810E94E51280915C0390915D03E091C7
:10184000BD03F091BE03668103960E94E512E0910C
:10185000BD03F091BE03168215820F90CF91DF91E8
:101860001F910F91FF90EF90089584B1856084B926
:10187000EAE0F1E080818260808308952F923F92B8
:101880004F925F926F927F928F929F92AF92BF9290
:10189000CF92DF92EF92FF920F931F93DF93CF933C
:1018A000CDB7DEB727970FB6F894DEBF0FBECDBF1A
:1018B000182F6091010270E080E090E00E942518EE
:1018C0001B012C012BEA3AEA4AEA50E40E949B15DC
:1018D0003B014C010E94C513698320E087E090E042
:1018E0009F838E83E12FF0E0FD83EC838C819D81CB
:1018F0000E8002C0959587950A94E2F7F82FFF0FA6
:10190000FB83821711F02A9A01C02A9880910B015B
:10191000826080930B01C401B30120E030E040E815
:101920005FE30E94A11787FD50C0C401B30120E00E
:1019300030E04FE753E40E944117181614F08981F4
:1019400045C0C201B10120E030E04AE754E40E9402
:1019500095165B016C0120E030E04AE755E40E94F7
:101960009B157B018C0120E030E040E85FE30E94A2
:10197000A11788231CF461E070E023C0C801B701FF
:1019800020E03FEF4FE757E40E9441171816ACF4F0
:10199000C601B50120E030E040E251E40E949B1511
:1019A0000E94C51306C080E991E00197F1F76150EC
:1019B000704061157105B9F70BC0C801B7010E94ED
:1019C000C513CB010197F1F703C081E08A95F1F7C8
:1019D00080910B018D7F80930B01C401B30120E046
:1019E00030E040E85FE30E94A11787FD50C0C401CA
:1019F000B30120E030E04FE753E40E94411718168E
:101A000014F0898145C0C201B10120E030E04AE70D
:101A100054E40E9495165B016C0120E030E04AE737
:101A200055E40E949B157B018C0120E030E040E8EA
:101A30005FE30E94A11788231CF461E070E023C0DB
:101A4000C801B70120E03FEF4FE757E40E9441177C
:101A50001816ACF4C601B50120E030E040E251E4D4
:101A60000E949B150E94C51306C080E991E0019772
:101A7000F1F76150704061157105B9F70BC0C801ED
:101A8000B7010E94C513CB010197F1F703C081E0B4
:101A90008A95F1F78E819F8101979F838E838F5F57
:101AA0009F4F11F02B8122CF1A8281E090E09F831B
:101AB0008E8380910B01826080930B0183B19A81A8
:101AC000990F9A8390E0969587958170EA81E80F47
:101AD000EA83C401B30120E030E040E85FE30E9404
:101AE000A11787FD50C0C401B30120E030E04FE7EB
:101AF00053E40E944117181614F0898145C0C201B1
:101B0000B10120E030E04AE754E40E9495165B0101
:101B10006C0120E030E04AE755E40E949B157B0110
:101B20008C0120E030E040E85FE30E94A1178823A9
:101B30001CF461E070E023C0C801B70120E03FEF72
:101B40004FE757E40E9441171816ACF4C601B501DF
:101B500020E030E040E251E40E949B150E94C51352
:101B600006C080E991E00197F1F76150704061157E
:101B70007105B9F70BC0C801B7010E94C513CB01AD
:101B80000197F1F703C081E08A95F1F780910B018D
:101B90008D7F80930B01C401B30120E030E040E869
:101BA0005FE30E94A11787FD50C0C401B30120E08C
:101BB00030E04FE753E40E944117181614F0898172
:101BC00045C0C201B10120E030E04AE754E40E9480
:101BD00095165B016C0120E030E04AE755E40E9475
:101BE0009B157B018C0120E030E040E85FE30E9420
:101BF000A11788231CF461E070E023C0C801B7017D
:101C000020E03FEF4FE757E40E9441171816ACF46D
:101C1000C601B50120E030E040E251E40E949B158E
:101C20000E94C51306C080E991E00197F1F7615069
:101C3000704061157105B9F70BC0C801B7010E946A
:101C4000C513CB010197F1F703C081E08A95F1F745
:101C50008E819F8101969F838E83099709F029CFFA
:101C60008A8127960FB6F894DEBF0FBECDBFCF9105
:101C7000DF911F910F91FF90EF90DF90CF90BF9079
:101C8000AF909F908F907F906F905F904F903F901C
:101C90002F9008952F923F924F925F926F927F9272
:101CA0008F929F92AF92BF92CF92DF92EF92FF926C
:101CB0000F931F93DF93CF9300D000D000D0CDB708
:101CC000DEB7182F6091010270E080E090E00E9482
:101CD00025181B012C012BEA3AEA4AEA50E40E943B
:101CE0009B153B014C010E94C513698320E087E0EE
:101CF00090E09E838D83E12FF0E0FC83EB838B816A
:101D00009C810D8002C0959587950A94E2F7F82F83
:101D1000FF0FFA83821711F02A9A01C02A98809146
:101D20000B01826080930B01C401B30120E030E01D
:101D300040E85FE30E94A11787FD50C0C401B301D2
:101D400020E030E04FE753E40E944117181614F0EA
:101D5000898145C0C201B10120E030E04AE754E486
:101D60000E9495165B016C0120E030E04AE755E4E3
:101D70000E949B157B018C0120E030E040E85FE38E
:101D80000E94A11788231CF461E070E023C0C80101
:101D9000B70120E03FEF4FE757E40E9441171816C4
:101DA000ACF4C601B50120E030E040E251E40E940D
:101DB0009B150E94C51306C080E991E00197F1F7D9
:101DC0006150704061157105B9F70BC0C801B701CA
:101DD0000E94C513CB010197F1F703C081E08A95FA
:101DE000F1F780910B018D7F80930B01C401B3014A
:101DF00020E030E040E85FE30E94A11787FD50C07B
:101E0000C401B30120E030E04FE753E40E944117E2
:101E1000181614F0898145C0C201B10120E030E0FC
:101E20004AE754E40E9495165B016C0120E030E023
:101E30004AE755E40E949B157B018C0120E030E0CD
:101E400040E85FE30E94A11788231CF461E070E082
:101E500023C0C801B70120E03FEF4FE757E40E94DD
:101E600041171816ACF4C601B50120E030E040E29D
:101E700051E40E949B150E94C51306C080E991E0C1
:101E80000197F1F76150704061157105B9F70BC00A
:101E9000C801B7010E94C513CB010197F1F703C038
:101EA00081E08A95F1F78D819E8101979E838D83D4
:101EB0008F5F9F4F11F02A8122CF26960FB6F8949C
:101EC000DEBF0FBECDBFCF91DF911F910F91FF906D
:101ED000EF90DF90CF90BF90AF909F908F907F90CA
:101EE0006F905F904F903F902F9008952F923F9268
:101EF0004F925F926F927F928F929F92AF92BF921A
:101F0000CF92DF92EF92FF920F931F93DF93CF93C5
:101F100000D000D0CDB7DEB76091010270E080E064
:101F200090E00E9425181B012C012BEA3AEA4AEAAC
:101F300050E40E949B153B014C010E94C51369832C
:101F40001A8281E090E09C838B8380910B018260F8
:101F500080930B01C401B30120E030E040E85FE36F
:101F60000E94A11787FD50C0C401B30120E030E0FA
:101F70004FE753E40E944117181614F0898145C0B9
:101F8000C201B10120E030E04AE754E40E94951616
:101F90005B016C0120E030E04AE755E40E949B15AC
:101FA0007B018C0120E030E040E85FE30E94A11754
:101FB00088231CF461E070E023C0C801B70120E071
:101FC0003FEF4FE757E40E9441171816ACF4C601E3
:101FD000B50120E030E040E251E40E949B150E94F0
:101FE000C51306C080E991E00197F1F76150704098
:101FF00061157105B9F70BC0C801B7010E94C5137F
:10200000CB010197F1F703C081E08A95F1F783B125
:102010009A81990F9A8390E0969587958170EA81CD
:10202000E80FEA8380910B018D7F80930B01C4013F
:10203000B30120E030E040E85FE30E94A11787FD94
:1020400050C0C401B30120E030E04FE753E40E94E8
:102050004117181614F0898145C0C201B10120E072
:1020600030E04AE754E40E9495165B016C0120E0E1
:1020700030E04AE755E40E949B157B018C0120E08B
:1020800030E040E85FE30E94A11788231CF461E080
:1020900070E023C0C801B70120E03FEF4FE757E4ED
:1020A0000E9441171816ACF4C601B50120E030E0DB
:1020B00040E251E40E949B150E94C51306C080E9CE
:1020C00091E00197F1F76150704061157105B9F722
:1020D0000BC0C801B7010E94C513CB010197F1F7EE
:1020E00003C081E08A95F1F78B819C8101969C83E6
:1020F0008B83099709F029CF8A810F900F900F9059
:102100000F90CF91DF911F910F91FF90EF90DF9093
:10211000CF90BF90AF909F908F907F906F905F9087
:102120004F903F902F900895289A089528980895E9
:10213000E1E0F1E0808181608083E9E6F0E0808188
:1021400080688083EB9A7894089531E020E0809154
:10215000030180FFFCCF80910001220F932F9F5F2E
:1021600081FD2F5F392F8091030180FDFCCF9930D5
:1021700070F3822F089509C0809102018D7F8093B2
:1021800002018091030180FDFCCF8091030180FF5B
:10219000FCCFF2CF8AB18D608AB9089540E027E084
:1021A00030E0682F70E0E0E4FCE9CB01022E02C0D1
:1021B000959587950A94E2F7582F550F841711F0DB
:1021C000589A01C058985A9ACF010197F1F75A9836
:1021D000CF010197F1F7215030408FEF2F3F3807A3
:1021E00011F0452FE2CF40E021E030E060E47CE9EF
:1021F0005A9A89B1440F90E0969587958170480F5F
:10220000CB010197F1F75A98CB010197F1F72F5FB6
:102210003F4F2930310561F7842F089540E027E0D2
:1022200030E0682F70E0A0E9B1E0CB01022E02C0DF
:10223000959587950A94E2F7582F550F841711F05A
:10224000589A01C058985A9A84EF91E0FD0131974D
:10225000F1F70197D9F75A9884EF91E0FD01319792
:10226000F1F70197D9F7215030408FEF2F3F380712
:1022700011F0452FDACF089521E030E040E05A9A7E
:1022800089B1440F90E0969587958170480F5A98D0
:102290002F5F3F4F2930310591F7842F08955B9AC6
:1022A00008955B980895FC019081818180839183DA
:1022B0000895582F40E0292F30E0422B532BCA01BC
:1022C0000895DF93CF93CDB7DEB728970FB6F89474
:1022D000DEBF0FBECDBF6D837E838F839887FE01E7
:1022E00035966381728181819D8128960FB6F8941D
:1022F000DEBF0FBECDBFCF91DF910895FC013081CD
:102300009381218182819083818322833383089505
:1023100084B5836884BD85B5836085BD279A08959B
:1023200087BD089580910A0290910B02892B39F0A4
:1023300080E18093010110920B0210920A028091B9
:1023400002018061809302010895E2E0F1E0808162
:102350008F7E80830895E9E6F0E080818068808345
:10236000EB9A78940895F894089508950895E9E60D
:10237000F0E0808180688083EB9A78940895F894E7
:10238000089580EA9FE00197F1F708951F920F9258
:102390000FB60F920BB60F9211242F933F934F93CA
:1023A0005F936F937F938F939F93AF93BF93EF93BD
:1023B000FF930E94A5108093B703FF91EF91BF9107
:1023C000AF919F918F917F916F915F914F913F91CD
:1023D0002F910F900BBE0F900FBE0F901F9018956E
:1023E0000F931F93CF93DF930E94921180E29EE49C
:1023F0000197F1F7809102018F7E8093020184B1F1
:10240000806C84B9239A8FE081B98FE387B95B9A96
:102410000E94350C2F9A80E395E720E931E0F9011D
:102420003197F1F70197D9F72F9888EE93E020E9DB
:1024300031E0F9013197F1F70197D9F70E945F0177
:102440000E9488110E949810C1E0D0E000EA1FE0CD
:10245000CD2B39F080910E028E5F80930E028B3F60
:1024600050F080910E02825080930E02853018F059
:10247000C0E0D0E002C0C1E0D0E0C8010197F1F7B0
:1024800080910E028093B60387BD0E94AF00E0CF1B
:10249000EF92FF920F931F93CF93DF937C018B01F9
:1024A000EA01F8940E94961083E00E944A0E10936D
:1024B000C303812F0E944A0E0093C303802F0E9402
:1024C0004A0E00E010E008C00E94760FF701E00F0E
:1024D000F11F80830F5F1F4F0C171D07A8F30E9489
:1024E000941080916900806880936900EB9A7894D9
:1024F000DF91CF911F910F91FF90EF900895EF9290
:10250000FF920F931F93CF93DF938C01EB017A011E
:10251000F8940E94961082E00E944A0E1093C30322
:10252000812F0E944A0E0093C303802F0E944A0EFF
:1025300000E010E005C089910E944A0E0F5F1F4F16
:102540000E151F05C0F30E949410809169008068E9
:1025500080936900EB9A7894DF91CF911F910F914E
:10256000FF90EF900895FF920F931F93CF93DF9307
:102570008C01F62EEA01F8940E94961082E00E94E7
:102580004A0E1093C303812F0E944A0E0093C30387
:10259000802F0E944A0E00E010E005C08F2D0E949F
:1025A0004A0E0F5F1F4F0C171D07C0F30E949410B7
:1025B00080916900806880936900EB9A7894DF913C
:1025C000CF911F910F91FF900895FF920F931F934A
:1025D0008C01F62EF8940E94961082E10E944A0E19
:1025E0001093C303812F0E944A0E0093C303802FD0
:1025F0000E944A0E8F2D0E944A0E0E949410E9E616
:10260000F0E0808180688083EB9A78941F910F912D
:10261000FF9008950F931F938C01F8940E949610D9
:1026200083E10E944A0E1093C303812F0E944A0E39
:102630000093C303802F0E943E0C8093BF030E942F
:102640009410E9E6F0E0808180688083EB9A7894CA
:102650008091BF031F910F910895DF93CF9300D016
:10266000CDB7DEB70E94921180EA9FE00197F1F7A3
:10267000E2E0F1E080818F7E808380E091E065E799
:102680000E94E51281E091E067E40E94E51280E09B
:1026900091E00E940A1381E091E00E940A13CE01AA
:1026A000019660E071E042E050E00E9448120E9412
:1026B000511189810E940E118A810E940E110E947F
:1026C0004F110F900F90CF91DF9108950E949211BA
:1026D00080EA9FE00197F1F7809102018F7E80935D
:1026E000020185E090E00E940A138F3EA9F42F9A20
:1026F00080E197E220E931E0F9013197F1F70197A4
:10270000D9F72F9880ED97E020E931E0F901319772
:10271000F1F70197D9F708952F9A88EE93E020E911
:1027200031E0F9013197F1F70197D9F72F98089522
:10273000AF92BF92CF92DF92EF92FF921F93CF930F
:10274000DF935C016B017A01C0E0D0E010C0C501ED
:102750008C0F9D1F0E940A13182FC6018C0F9D1FFE
:102760000E940A13181711F081E005C02196CE15BA
:10277000DF0568F380E0DF91CF911F91FF90EF902C
:10278000DF90CF90BF90AF900895EF92FF920F939C
:102790001F937B018C0120E030E040E05FE40E9469
:1027A000711788238CF0C801B70120E030E040E0C9
:1027B0005FE40E943D150E94D1179B01AC0120509F
:1027C00030404040504806C0C801B7010E94D117B0
:1027D0009B01AC01B901CA011F910F91FF90EF90CD
:1027E0000895A0E0B0E0E7EFF3E10C949F1ADC015C
:1027F0002B01FA019C91923008F439C1EB018881D8
:10280000823008F433C1943069F4843009F02FC168
:1028100011969C9111978981981709F428C1AFE00E
:10282000B2E025C1843009F421C18230A9F492308C
:1028300009F01DC19A01AD0188E0EA010990AE01DD
:10284000E90109929E018150C1F7E2018981119647
:102850009C918923818308C1923009F407C11296A3
:102860002D903C901397EB018A819B811496AD903B
:10287000BD90CD90DC901797EC80FD800E811F817C
:102880009101281B390BB90137FF04C06627772750
:10289000621B730B603271050CF061C012161306D7
:1028A0006CF537014801062E04C0969487947794FE
:1028B00067940A94D2F721E030E040E050E004C091
:1028C000220F331F441F551F6A95D2F72150304005
:1028D000404050402E213F214023512321153105F6
:1028E0004105510521F021E030E040E050E0790160
:1028F0008A01E628F728082919293CC0232BD1F1A1
:10290000260E371E35014601062E04C09694879484
:10291000779467940A94D2F721E030E040E050E0E9
:1029200004C0220F331F441F551F6A95D2F7215050
:102930003040404050402A213B214C215D2121154F
:1029400031054105510521F021E030E040E050E043
:1029500059016A01A628B728C828D9280BC08215B2
:1029600093052CF01C01AA24BB24650103C0EE24AE
:10297000FF24870111969C91D20111968C91981792
:1029800009F445C0992339F0A80197012A193B0998
:102990004C095D0906C0A60195012E193F09400B9F
:1029A000510B57FD08C01182338222822483358364
:1029B000468357831DC081E081833382228288272A
:1029C0009927DC01821B930BA40BB50B84839583A1
:1029D000A683B7830DC0220F331F441F551F2483C6
:1029E00035834683578382819381019793838283C2
:1029F0002481358146815781DA01C9010197A109F6
:102A0000B1098F5F9F4FAF4FBF4328F30BC0918336
:102A100033822282EA0CFB1C0C1D1D1DE482F58210
:102A20000683178383E08083248135814681578123
:102A300057FF1AC0C901AA2797FDA095BA2F817028
:102A40009070A070B0705695479537952795822B5A
:102A5000932BA42BB52B84839583A683B783828184
:102A60009381019693838283DF0101C0D201CD015E
:102A7000CDB7DEB7E2E10C94BB1AA0E2B0E0E3E42C
:102A8000F5E10C94AB1A69837A838B839C832D8345
:102A90003E834F835887E9E0EE2EF12CEC0EFD1EAD
:102AA000CE010196B7010E94C2198E010F5E1F4F21
:102AB000CE010596B8010E94C2198A8991E0892742
:102AC0008A8BC701B801AE01475E5F4F0E94F113C8
:102AD0000E94ED18A096E6E00C94C71AA0E2B0E0C0
:102AE000E4E7F5E10C94AB1A69837A838B839C83CA
:102AF0002D833E834F835887F9E0EF2EF12CEC0EA7
:102B0000FD1ECE010196B7010E94C2198E010F5E13
:102B10001F4FCE010596B8010E94C219C701B80126
:102B2000AE01475E5F4F0E94F1130E94ED18A09620
:102B3000E6E00C94C71AA0E2B0E0E1EAF5E10C94FB
:102B40009F1A69837A838B839C832D833E834F8373
:102B50005887CE010196BE01675F7F4F0E94C21960
:102B6000CE010596BE016F5E7F4F0E94C219998506
:102B7000923088F089898230C8F0943019F482301C
:102B800051F404C0843029F4923081F48FE092E053
:102B9000C6C0923049F420E09A858A89981321E0D2
:102BA0002A87CE010996BBC0823049F420E09A857D
:102BB0008A89981321E02A8BCE014196B0C02D84DA
:102BC0003E844F8458886D887E888F88988CEE2448
:102BD000FF248701AA24BB24650140E050E060E0A7
:102BE00070E0E0E0F0E0C10181709070892BE9F0C5
:102BF000E60CF71C081D191D9A01AB012A0D3B1D9F
:102C00004C1D5D1D80E090E0A0E0B0E0E614F7040C
:102C10000805190520F481E090E0A0E0B0E0BA01D9
:102C2000A901480F591F6A1F7B1FAA0CBB1CCC1C93
:102C3000DD1C97FE08C081E090E0A0E0B0E0A82A8B
:102C4000B92ACA2ADB2A3196E032F10549F0660C2E
:102C5000771C881C991C5694479437942794C3CFAB
:102C6000FA85EA892B893C898B859C85280F391F39
:102C70002E5F3F4F17C0CA0181709070892B61F0A1
:102C800016950795F794E79480E090E0A0E0B0E80F
:102C9000E82AF92A0A2B1B2B7695679557954795B5
:102CA0002F5F3F4F77FDE7CF0CC0440F551F661FC6
:102CB000771F17FD4160EE0CFF1C001F111F2150F4
:102CC0003040403090E0590790E0690790E4790780
:102CD00060F32B8F3C8FDB01CA018F779070A0705F
:102CE000B07080349105A105B10561F447FD0AC0BB
:102CF000E114F1040105110529F0405C5F4F6F4FAD
:102D00007F4F40781A8EFE1711F081E08A8F4D8F29
:102D10005E8F6F8F78A383E0898FCE0149960E94E2
:102D2000ED18A096E2E10C94BB1AA8E1B0E0EBE943
:102D3000F6E10C94A71A69837A838B839C832D8395
:102D40003E834F835887B9E0EB2EF12CEC0EFD1E2D
:102D5000CE010196B7010E94C2198E010F5E1F4F6E
:102D6000CE010596B8010E94C2192985223008F4C7
:102D70007EC03989323010F4B8017CC08A859A89C6
:102D800089278A87243011F0223031F4231709F083
:102D90006EC06FE072E06EC0343039F41D861E865E
:102DA0001F86188A1C861B8604C0323021F484E0FA
:102DB0008987B7015FC02B853C858B899C89281B3F
:102DC000390B3C872B87ED84FE840F851889AD88ED
:102DD000BE88CF88D88CEA14FB040C051D0540F48E
:102DE000EE0CFF1C001F111F215030403C872B8729
:102DF00020E030E040E050E080E090E0A0E0B0E48F
:102E000060E070E0EA14FB040C051D0540F0282B7F
:102E1000392B4A2B5B2BEA18FB080C091D09B695C8
:102E2000A79597958795EE0CFF1C001F111F6F5FEC
:102E30007F4F6F31710531F7DA01C9018F779070DB
:102E4000A070B07080349105A105B10561F427FD33
:102E50000AC0E114F1040105110529F0205C3F4F7F
:102E60004F4F5F4F20782D873E874F87588BBE018D
:102E7000675F7F4FCB010E94ED186896EAE00C94E3
:102E8000C31AA8E1B0E0E7E4F7E10C94AB1A698358
:102E90007A838B839C832D833E834F83588789E07D
:102EA000E82EF12CEC0EFD1ECE010196B7010E941A
:102EB000C2198E010F5E1F4FCE010596B8010E9408
:102EC000C2198985823040F08989823028F0C70193
:102ED000B8010E943A1A01C08FEF6896E6E00C94A0
:102EE000C71AA8E1B0E0E7E7F7E10C94AB1A6983F1
:102EF0007A838B839C832D833E834F83588789E01D
:102F0000E82EF12CEC0EFD1ECE010196B7010E94B9
:102F1000C2198E010F5E1F4FCE010596B8010E94A7
:102F2000C2198985823040F08989823028F0C70132
:102F3000B8010E943A1A01C08FEF6896E6E00C943F
:102F4000C71AA8E1B0E0E7EAF7E10C94AB1A69838D
:102F50007A838B839C832D833E834F83588789E0BC
:102F6000E82EF12CEC0EFD1ECE010196B7010E9459
:102F7000C2198E010F5E1F4FCE010596B8010E9447
:102F8000C2198985823040F08989823028F0C701D2
:102F9000B8010E943A1A01C081E06896E6E00C94FC
:102FA000C71AACE0B0E0E7EDF7E10C94AF1A698323
:102FB0007A838B839C83CE010196BE016B5F7F4F2A
:102FC0000E94C2198D81823061F1823050F18430CB
:102FD00021F48E81882351F12EC02F81388537FD51
:102FE00020C06E812F3131051CF06623F9F023C01B
:102FF0008EE190E0821B930B29853A854B855C8599
:1030000004C056954795379527958A95D2F766233C
:10301000B1F050954095309521953F4F4F4F5F4F00
:103020000EC020E030E040E050E009C02FEF3FEF5D
:103030004FEF5FE704C020E030E040E050E8B90126
:10304000CA012C96E2E00C94CB1AA8E0B0E0EBE2C7
:10305000F8E10C94A71A7B018C01611571058105BB
:10306000910519F482E0898360C083E089838EE151
:10307000C82ED12CDC82CB82ED82FE820F83188792
:10308000C801B7010E949E18FC013197F7FF3BC0B1
:10309000222733272E1B3F0B57016801022E04C045
:1030A000D694C794B794A7940A94D2F740E050E01E
:1030B00060E070E081E090E0A0E0B0E004C0880F44
:1030C000991FAA1FBB1F2A95D2F70197A109B10921
:1030D0008E219F21A023B1230097A105B10521F0E6
:1030E00041E050E060E070E04A295B296C297D29CD
:1030F0004D835E836F8378878EE190E08E1B9F0BFC
:103100009C838B8312C0309781F00E2E04C0EE0C8E
:10311000FF1C001F111F0A94D2F7ED82FE820F835D
:103120001887CE1ADF0ADC82CB821A82CE01019682
:103130000E94ED182896EAE00C94C31AEF92FF92D1
:103140000F931F937B018C0180E0E81680E0F80666
:1031500081E0080780E0180788F48FEFE816F10493
:103160000105110531F028F088E090E0A0E0B0E022
:1031700017C080E090E0A0E0B0E012C080E0E81668
:1031800080E0F80680E0080781E0180728F088E171
:1031900090E0A0E0B0E004C080E190E0A0E0B0E00A
:1031A00020E230E040E050E0281B390B4A0B5B0B7B
:1031B00004C016950795F794E7948A95D2F7F7011E
:1031C000E95EFD4F8081281B310941095109C90180
:1031D0001F910F91FF90EF900895DF92EF92FF9271
:1031E0000F931F93FC01E480F58006811781D18045
:1031F0008081823048F480E090E0A0E1B0E0E82AED
:10320000F92A0A2B1B2BA5C0843009F49FC08230F9
:1032100021F4EE24FF24870105C0E114F104010527
:10322000110519F4E0E0F0E096C0628173819FEF30
:10323000623879070CF05BC022E83FEF261B370BA2
:103240002A3131052CF020E030E040E050E02AC087
:10325000B801A701022E04C076956795579547954A
:103260000A94D2F781E090E0A0E0B0E004C0880FBB
:10327000991FAA1FBB1F2A95D2F70197A109B1096F
:103280008E219F21A023B1230097A105B10521F034
:1032900081E090E0A0E0B0E09A01AB01282B392B4F
:1032A0004A2B5B2BDA01C9018F779070A070B07048
:1032B00080349105A105B10539F427FF09C0205CD0
:1032C0003F4F4F4F5F4F04C0215C3F4F4F4F5F4F09
:1032D000E0E0F0E02030A0E03A07A0E04A07A0E4F8
:1032E0005A0710F0E1E0F0E079018A0127C0603868
:1032F000710564F5FB01E158FF4FD801C7018F77D5
:103300009070A070B07080349105A105B10539F4BA
:10331000E7FE0DC080E490E0A0E0B0E004C08FE3E1
:1033200090E0A0E0B0E0E80EF91E0A1F1B1F17FF97
:1033300005C016950795F794E794319687E01695A2
:103340000795F794E7948A95D1F705C0EE24FF24FA
:103350008701EFEFF0E06E2F679566276795902F56
:103360009F77D794DD24D7948E2F8695492F462BAF
:10337000582F5D29B701CA011F910F91FF90EF905F
:10338000DF900895FC01DB01408151812281622F91
:103390006F7770E0221F2227221F9381892F880FC9
:1033A000822B282F30E0991F9927991F11969C9303
:1033B000119721153105A9F54115510561057105D3
:1033C00011F482E037C082E89FEF13969C938E93AE
:1033D00012979A01AB0167E0220F331F441F551F5C
:1033E0006A95D1F783E08C930DC0220F331F441FE1
:1033F000551F12968D919C911397019713969C934C
:103400008E931297203080E0380780E0480780E4F0
:10341000580758F314962D933D934D935C9317974B
:1034200008952F3F310579F4411551056105710566
:1034300019F484E08C93089564FF03C081E08C93B9
:1034400012C01C9210C02F57304013963C932E93FD
:10345000129783E08C9387E0440F551F661F771FF8
:103460008A95D1F7706414964D935D936D937C9318
:10347000179708951F93DC01FB019C91923008F48B
:1034800047C08081823008F443C0943051F41196D3
:103490001C91843099F58181682F70E0611B71095E
:1034A0003FC0843021F0923031F48230B9F1818113
:1034B000882389F12DC011961C9111978230F1F06B
:1034C00081811817D9F412962D913C91139782811E
:1034D00093818217930794F028173907BCF014964C
:1034E0008D919D910D90BC91A02D248135814681B7
:1034F0005781281739074A075B0718F4112341F051
:103500000AC082179307A407B50740F4112319F0E6
:1035100061E070E005C06FEF7FEF02C060E070E037
:10352000CB011F910895991B79E004C0991F96174C
:1035300008F0961B881F7A95C9F7809508952F92F9
:103540003F924F925F926F927F928F929F92AF9233
:10355000BF92CF92DF92EF92FF920F931F93CF9380
:10356000DF93CDB7DEB7CA1BDB0B0FB6F894DEBF17
:103570000FBECDBF09942A88398848885F846E843D
:103580007D848C849B84AA84B984C884DF80EE8087
:10359000FD800C811B81AA81B981CE0FD11D0FB690
:1035A000F894DEBF0FBECDBFED010895F894FFCFB4
:1035B00011010300020001000000010001000100F0
:1035C00000000000000000000102020303030304E6
:1035D00004040404040404050505050505050505A2
:1035E0000505050505050506060606060606060682
:1035F000060606060606060606060606060606066B
:103600000606060606060607070707070707070751
:10361000070707070707070707070707070707073A
:10362000070707070707070707070707070707072A
:10363000070707070707070707070707070707071A
:103640000707070707070708080808080808080801
:1036500008080808080808080808080808080808EA
:1036600008080808080808080808080808080808DA
:1036700008080808080808080808080808080808CA
:1036800008080808080808080808080808080808BA
:1036900008080808080808080808080808080808AA
:1036A000080808080808080808080808080808089A
:1036B000080808080808080808080808080808088A
:0836C0000808080808080800CA
:00000001FF
