:100000000C9472000C9491000C9491000C9491004B
:100010000C9491000C9491000C9491000C9491001C
:100020000C9491000C9491000C9491000C9491000C
:100030000C9491000C9491000C9491000C949100FC
:100040000C9491000C9491000C9491000C949100EC
:100050000C9491000C9491000C9491000C949100DC
:100060000C9491000C9491000C9491000C949100CC
:100070000C9491000C9491000C9491000C949100BC
:100080000C9491000C9491000C9491000C949100AC
:100090000C9491000C9491000C9491000C9491009C
:1000A0000C9491000C9491000C9491000C9491008C
:1000B0000C9491000C9491000C9491000C9491007C
:1000C0000C9491000C9491000C9491000C9491006C
:1000D0000C9491000C9491000C9491000C9491005C
:1000E0000C94910011241FBECFEFD1E2DEBFCDBF33
:1000F00012E0A0E0B2E0E6EBFEE100E00BBF02C0E0
:1001000007900D92AE30B107D9F712E0AEE0B2E041
:1001100001C01D92A83BB107E1F70E94DB0D0C94D2
:10012000590F0C94000020E931E02E9A80E197E20B
:10013000F9013197F1F70197D9F72E9888E893E103
:10014000F9013197F1F70197D9F7EFCF0895803290
:1001500041F0E091B202F091B3028081897F816029
:10016000808308958091A5029091A6028062909369
:10017000A6028093A502089508950895089508950C
:1001800008950F931F93DF93CF930F92CDB7DEB7F0
:100190008091510290915202089660E20E94390FBC
:1001A0000E94FE0AE091B202F091B302808180FFCA
:1001B0000CC01092AA021092A9021092AC021092E6
:1001C000AB0280818E7F826080838091510290910A
:1001D000520205960E94C90E082F809151029091FB
:1001E000520204960E94C90E182F80FF04C0802F6F
:1001F000807F803E69F01093AE020093B1025B9A5B
:1002000081E190E069E871E04DEA52E00E949300DC
:10021000812F8073803141F0803259F08823D1F4EE
:10022000589A8BB1837F03C05A9A8BB1867F8BB962
:1002300024C05B9A8BB18A7F8BB9E091B202F091B6
:10024000B302808186708630C1F48BEA92E00E940E
:100250001A0513C02F9A8091510290915202049670
:100260000E94C90E80738093AE0280E190E06BED36
:1002700071E04DEA52E00E9493008091A5029091B6
:10028000A60285FF16C08F7D9093A6028093A502DB
:10029000CE0101960E94A604BC01009751F0E091A6
:1002A000B202F091B302478D89EA92E050E00E94D9
:1002B0003F0EE091B202F091B302808183FF10C043
:1002C0008BEA92E00E941A050E949A02882341F06C
:1002D000E091B202F091B3028081877F84608083D5
:1002E0000F90CF91DF911F910F910895CF93DF93DE
:1002F000C5EAD2E088E0DE011D928A95E9F7109206
:10030000520210925102E3E5F2E0F093A402E0936E
:10031000A3028EE092E09093B3028093B20280E554
:10032000DF011D928A95E9F7E091B202F091B302E4
:1003300081E4DF011D928A95E9F7E091B202F09124
:10034000B30281E080830E9401030E9411020E9497
:100350001A020E94AF0D0E946D0681309105C9F40A
:1003600088E060E076EFAE014E5F5F4F0E94640769
:100370008130910531F42F9A0E94BC0D0E945506E0
:1003800012C02E988093AE0280E190E06DE371E0A0
:1003900006C08093AE0280E190E068E471E04DEA2F
:1003A00052E00E94930080E29EE40197F1F72F98BB
:1003B0002E98DF91CF910895CF93DF93482F8091AE
:1003C000A702681731F5A8EAB2E0842F9C01F90171
:1003D00020E030E008C09C918081981711F021E066
:1003E00030E0319611968E2F841B8617A0F3232BB5
:1003F00081F480E090E00E94A702EC018130910539
:1004000051F0E091B202F091B30280818860808364
:1004100002C0C1E0D0E00E941902CE01DF91CF916D
:10042000089581E08093A702809100028093A80242
:100430000895089508950F931F930091B2021091AB
:10044000B302F80180818F7E80830E944104015CA9
:100450001F4FF801918380831F910F9108950F938F
:100460001F93CF93DF93182F022F982F80E0C62F72
:10047000D0E0C82BD92B0E94EF06E091B202F09198
:10048000B30281859285C817D90761F1808184FD07
:1004900029C0CF010D96FC0186E0DF011D928A95EF
:1004A000E9F71D3F11F040E001C042E0E091B202E7
:1004B000F091B302808180618083CF010D9660E06E
:1004C000202F0E943D059C01E091B202F091B30201
:1004D0008130910519F4D287C18706C080818F7E53
:1004E000808302C022E030E0C901DF91CF911F91EB
:1004F0000F9108950F931F930091B2021091B302D0
:100500000E944104015C1F4FF80191838083E091B8
:10051000B202F091B302FF9680819181892B61F341
:1005200088EF68EF40E050E020E00E942F021F912A
:100530000F9108958FEF60E040E050E020E00E94CE
:100540002F0220E0019709F421E0822F0895FF9205
:100550000F931F93082FF92E10E00DC08DEF62E26C
:1005600040E050E020E00E942F02019721F4802F0C
:100570009F2D9C0105C01F5F1B3081F721E030E0FB
:10058000C9011F910F91FF900895FF920F931F9340
:10059000082FF92E10E00DC08CEF60E040E050E035
:1005A00020E00E942F02019721F4802F9F2D9C01B3
:1005B00005C01F5F1B3081F72CE130E0C9011F919E
:1005C0000F91FF900895FF920F931F93082FF92E1C
:1005D00010E00DC08BEF60E040E050E020E00E94B2
:1005E0002F02019721F4802F9F2D9C0105C01F5FD2
:1005F0001B3081F72CE130E0C9011F910F91FF9072
:100600000895E091B202F091B302168E158E08950E
:10061000CF93DF93E091B202F091B302168E158E64
:100620006A3019F0C6E1D0E00FC0FC019085218549
:100630008781887F39F4992329F4222319F4C1E0B2
:10064000D0E002C0C2E2D0E080915102909152020B
:1006500004960E94C90E8073803221F4C130D10506
:1006600049F40CC0C130D10529F481E090E00E942A
:10067000E30203C0CE010E94C502EC01CE01DF916E
:10068000CF9108950F931F93CF93DF93DC01C09117
:10069000B202D091B302613009F0D4C010E070E032
:1006A0000FEF3C91432F50E0CA0180739070892B6B
:1006B000A1F0832F8F708F5F35FF07C036FD02C01A
:1006C000982F02C0982F990F190F44FF03C046FDC1
:1006D000880F780F119621E026C037FD02C020E078
:1006E0000AC011968C911197982F9F739F5F86FD7A
:1006F000990F190F21E046FF0BC02F5FFD01E20F9C
:10070000F11D8081982F9F739F5F86FD990F790F50
:10071000832F8F708F3029F08F5F280FA20FB11DAC
:1007200002C008A30F8F621B09F0BBCF733040F1EA
:100730002E9A88EB9BE020E931E0F9013197F1F73F
:100740000197D9F72E9888E893E120E931E0F90183
:100750003197F1F70197D9F72E9A88EB9BE020E9C2
:1007600031E0F9013197F1F70197D9F72E9880E13F
:1007700097E220E931E0F9013197F1F70197D9F7D4
:10078000133008F43CC02E9A88EB9BE020E931E05E
:10079000F9013197F1F70197D9F72E9888E893E19D
:1007A00020E931E0F9013197F1F70197D9F72E9A55
:1007B00088EB9BE020E931E0F9013197F1F70197EF
:1007C000D9F72E9888E893E120E931E0F9013197D3
:1007D000F1F70197D9F72E9A88EB9BE020E931E0F9
:1007E000F9013197F1F70197D9F72E9880E197E257
:1007F00020E931E0F9013197F1F70197D9F773302A
:1008000010F41330D0F02E9A88EB9BE020E931E011
:10081000F9013197F1F70197D9F72E9880E197E226
:1008200020E931E0F9013197F1F70197D9F78FEF1E
:1008300088A38F8F22E130E00AC078A31F8F21E0C8
:1008400030E005C08FEF88A38F8F28E130E0C90129
:10085000DF91CF911F910F91089581E00895E0916C
:10086000B202F091B30221A132A1309521953F4F00
:1008700083A194A1281B390B2056304FC90108953C
:10088000089580915102909152020C960E94C90ED7
:10089000282F30E0C90183709070019739F4E091FE
:1008A000B202F091B30223AD34AD0EC02C703070A3
:1008B0002430310519F020E030E006C0E091B202AA
:1008C000F091B30225AD36ADC9010895E091B202B1
:1008D000F091B30283AD94AD03960E94C90E8F3F91
:1008E00049F4E091B202F091B30285AD96AD039662
:1008F0000E94C90E0895809151029091520208966B
:100900000E94C90E90E0807390708032910579F05A
:100910008033910599F0409719F020E030E014C041
:10092000E091B202F091B30225A936A90DC0E09181
:10093000B202F091B30227A930AD06C0E091B20235
:10094000F091B30221AD32ADC90108950F931F9309
:100950008C0180915102909152020B960E94C90E17
:100960008C70F801808380915102909152020A9616
:100970000E94C90E90E0807390708032910579F0EA
:100980008033910599F0409719F020E030E014C0D1
:10099000E091B202F091B30227A530A90DC0E09119
:1009A000B202F091B30221A932A906C0E091B202CD
:1009B000F091B30223A934A9C9011F910F910895A1
:1009C000CF93DF93EC0119821882809151029091AC
:1009D000520205960E94C90E90E0807F9070803C84
:1009E000910591F0813C910524F4803B9105C9F477
:1009F00007C0803D910561F0803E910591F40CC0E7
:100A00008881998190610BC088819981906207C02B
:100A100088819981906403C08881998190689983C5
:100A2000888386E08A8381E08B8381E18C83DF91F8
:100A3000CF9108950F931F93DF93CF930F92CDB76C
:100A4000DEB78C010E947B04009789F0E091B2022E
:100A5000F091B30240A1B80150E00E946F0E809166
:100A600051029091520209960E94C90E89830F90FB
:100A7000CF91DF911F910F910895CF92DF92FF9256
:100A80000F931F93CF93DF936C01062FF42E122F39
:100A9000C091B202D091B302EF9688819981892BDF
:100AA00021F40E94410499838883C091B202D091BD
:100AB000B302EF9688819981892B09F49DC08091BA
:100AC00051029091520204960E94C90E80738032A6
:100AD00071F4113061F480915102909152020496A8
:100AE0000E94C90E82FF03C0C2E6D0E002C0C1E08E
:100AF000D0E0002319F0C5E6D0E084C0C130D105B4
:100B000009F080C081E0F81619F4C6E6D0E07AC09A
:100B10000091B2021091B302809151029091520261
:100B20000C960E94C90E282F30E0C9018370907086
:100B30000197D9F4E091B202F091B30283AD94AD84
:100B40000696B60140E050E00E946F0E809151027F
:100B500090915202849666E00E94390FE091B202B1
:100B6000F091B30283AD94AD1FC02C70307024306F
:100B70003105E9F4E091B202F091B30285AD96AD92
:100B80000696B60140E050E00E946F0E809151023F
:100B900090915202859666E00E94390FE091B20270
:100BA000F091B30285AD96AD6F2D0E94390F809103
:100BB0005102909152020D960E94C90E90E08370EE
:100BC00090708130910529F0029751F080E090E01B
:100BD0000DC0E091B202F091B30283AD94AD06C0B6
:100BE000E091B202F091B30285AD96AD015C1F4F6A
:100BF000F8019183808306C00E9441049983888311
:100C0000C4E6D0E0CE01DF91CF911F910F91FF900C
:100C1000DF90CF9008951F938091510290915202DE
:100C2000089664E00E94390F10E00CC080915102D8
:100C30009091520204960E94C90E80FD03C021E0EB
:100C400030E005C01F5F1B3089F720E130E0C901AB
:100C50001F9108958091510290915202E091B20249
:100C6000F091B3024A96678D0E94390F809151022C
:100C700090915202E091B202F091B3024E9660A1BF
:100C80000E94390F08958091510290915202089666
:100C900064E00E94390F80915102909152020496B3
:100CA0000E94C90E80FDF7CF08950F931F93809186
:100CB000510290915202089661E00E94390F009112
:100CC000B2021091B3020E944104015C1F4FF8016F
:100CD000918380831F910F9108958F929F92AF927D
:100CE000BF92CF92DF92EF92FF920F931F93CF9319
:100CF000DF9380915102909152020C9665E80E9418
:100D0000390FE0905102F090520226E130E0E20EFD
:100D1000F31EC0E0D0E087010F5F1F4FC7016D2FAA
:100D20000E94390F82E090E0E80EF91EC8016C2F96
:100D30000E94390F219697E0C53FD90761F7C0900F
:100D40005102D090520226E130E0C20ED31E21E0C3
:100D5000E22EF12CAA24BB2490E9892E91E0992E51
:100D600086010F5F1F4FC6010E94C90ED82FC0E039
:100D700082E090E0C80ED91EC8010E94C90E9E01F3
:100D8000280F311D2A153B0599F02F9A88EC90E029
:100D9000F4013197F1F70197D9F72F9888EC90E09B
:100DA000F4013197F1F70197D9F784EFE82EF12C90
:100DB00034EFA31637E0B30621F00894A11CB11C50
:100DC000CFCFC701DF91CF911F910F91FF90EF908F
:100DD000DF90CF90BF90AF909F908F900895E0915B
:100DE000B202F091B302808184FF13C0809151025E
:100DF0009091520201960E94C90E84FF0AC00E947F
:100E00001B028091510290915202039660E10E9470
:100E1000390F08950F931F93DF93CF9300D000D025
:100E2000CDB7DEB78C0160915102709152026450CF
:100E3000704FCE01019644E050E00E943F0E8A813F
:100E4000F8018083898181838C8182838B81838374
:100E50000F900F900F900F90CF91DF911F910F91F6
:100E60000895EF92FF920F931F93DF93CF9300D0DB
:100E700000D0CDB7DEB78C017B016091510270913B
:100E800052026450704FCE01019644E050E00E943F
:100E90003F0E9A8180E02981820F911DF801918394
:100EA00080839C8180E02B81820F911DF7019183CB
:100EB00080830F900F900F900F90CF91DF911F9133
:100EC0000F91FF90EF9008956F927F928F929F9273
:100ED000AF92BF92CF92DF92EF92FF920F931F9348
:100EE000CF93DF93F82ED62EE72E4A018091510240
:100EF0009091520204960E94C90E80FF04C0E0E166
:100F0000CE2ED12C6BC380915102909152020C963F
:100F100065E80E94390F80915102909152024696E5
:100F200060E04AEE5FE00E949D0EE091B202F09117
:100F3000B30282E09DE39087878382E087A3E091FC
:100F4000B202F091B30280A7E091B202F091B30235
:100F50008AE081A7E091B202F091B30286E082A715
:100F6000E091B202F091B30201E003A7E091B20276
:100F7000F091B30214A6E091B202F091B30280EABC
:100F80009FE096A785A7E091A302F091A4021082AA
:100F9000E091A302F091A4021182E091A302F091EA
:100FA000A4021FEF1283E091A302F091A402138325
:100FB000E091A302F091A4021187809151029091D7
:100FC000520260E00E94390F8091510290915202CA
:100FD000019660E00E94390F809151029091520277
:100FE00002966FEF0E94390F809151029091520248
:100FF00003966FEF0E94390F809151029091520237
:1010000009966FEF0E94390FE091A302F091A402BC
:1010100085E28783E091A302F091A40280EC8683AD
:10102000E091A302F091A40285E88487E091A302F5
:10103000F091A402128A8091510290915202079677
:1010400065E20E94390F80915102909152020696FA
:1010500060EC0E94390F80915102909152020C96DF
:1010600065E80E94390F8091510290915202429698
:1010700060E00E94390FE091A302F091A40292EC8B
:101080009583E091A302F091A4028DEF8483E09117
:10109000B202F091B30295A3E091B202F091B302D3
:1010A00086A38091510290915202059662EC0E94B3
:1010B000390F809151029091520204966DEF0E9477
:1010C000390FE091A302F091A40280E18287E091C0
:1010D000A302F091A4028BE083878091510290914A
:1010E00052020A9660E10E94390F8091510290915C
:1010F00052020B966BE00E94390FE091A302F0912F
:10110000A402018FE091A302F091A402108FE0915C
:10111000A302F091A40284E0878B80915102909108
:101120005202805C9F4F6FEF0E94390FE091A30243
:10113000F091A40211AFE091A302F091A402E3AEFA
:10114000E091A302F091A402D2AE8F2D81508E3790
:1011500020F071E1C72ED12C41C2E091A302F091A1
:10116000A402F68A34010894611C711CC301F401C5
:1011700060810E9442036C018130910509F02EC20A
:10118000E091B202F091B30280A5853F20F063E1C7
:10119000C62ED12C28C087A1853F20F054E1C52E52
:1011A000D12C21C082A586508F3E20F045E1C42E6F
:1011B000D12C19C081A587508E3E20F036E1C32E78
:1011C000D12C11C083A58150843F20F028E1C22E8C
:1011D000D12C09C084A5882331F08450813F18F0B8
:1011E00097E1C92ED12CE091A302F091A40287814E
:1011F00084FF03C08DE1C82ED12C15AE81E0C81646
:10120000D10409F0EBC1E091B202F091B30280A5E4
:10121000482F50E0415F5F4F407F87A1A82FB0E08B
:101220001F96A07F82A5082F10E0015F1F4F007F4F
:1012300081A5C82FD0E02F96C07F83A5682F70E0CE
:10124000615F7F4F607F84A5E82EFF248FE090E0F0
:10125000E80EF91E80EF9FEFE822F9225701E6160B
:10126000F70608F45B01CD01840F951F9C01220F46
:10127000331F280F391F81A192A1820F931F92A3C0
:1012800081A3E091B202F091B3029801220F331FC3
:1012900081A192A1820F931F9E01220F331F820F03
:1012A000931F9B01220F331F820F931F8E0D9F1DD3
:1012B0008A0D9B1D92A381A325A536A52817390762
:1012C00030F412A211A22AE1C22ED12C87C1E091E2
:1012D000A302F091A40285E0838FE091A302F09134
:1012E000A40294E0569547959A95E1F7942F838D43
:1012F000840F848FE091A302F091A402848D840F67
:10130000858FE091A302F091A402858D980F978FAD
:10131000E091A302F091A40284E0B695A7958A9586
:10132000E1F79A2F878D8A0F80A3E091A302F091B5
:10133000A40280A18A0F81A3E091A302F091A402EC
:1013400081A1980F96A3E091A302F091A402B4E0CA
:1013500016950795BA95E1F7902F86A1800F87A380
:10136000E091A302F091A40287A1980F92ABE091C3
:10137000A302F091A402A4E076956795AA95E1F7FF
:10138000962F82A9860F84ABE091A302F091A4026C
:1013900084A9980F90ABE091A302F091A40286E09B
:1013A00082A7E091A302F091A40274E0D695C795BC
:1013B0007A95E1F79C2F80A98C0F83A7E091A30277
:1013C000F091A40283A5980F94A7E091A302F09155
:1013D000A40216A6EF2869F0E091A302F091A402FE
:1013E000950164E0369527956A95E1F784A5820F0B
:1013F00086A7A091A302B091A402E091B202F0915D
:10140000B302878D5A968C93A091A302B091A40247
:10141000E091B202F091B30280A15E968C93E091CC
:10142000A302F091A40286E084A3E091A302F091CC
:10143000A40285A3A091A302B091A402E091B202FC
:10144000F091B30283A5D1968C93A091A302B091A1
:10145000A402E091B202F091B30281A59F968C9311
:10146000A091A302B091A402E091B202F091B30264
:1014700084A59D968C93A091A302B091A402E091C3
:10148000B202F091B30281A598968C93E091A302E9
:10149000F091A4029501253F310510F024EF30E0D2
:1014A00021A78091510290915202A091B202B09175
:1014B000B302E091A302F091A402238D30E054E046
:1014C000220F331F5A95E1F7280F391FD0963C930E
:1014D0002E939F97248D30E044E0220F331F4A95CE
:1014E000E1F7280F391FD2963C932E93D197258D83
:1014F00030E004E0220F331F0A95E1F7280F391F6F
:10150000D4963C932E93D397278D30E014E0220F8E
:10151000331F1A95E1F7280F391FD6963C932E9367
:10152000D59720A130E074E0220F331F7A95E1F7C0
:10153000280F391FD8963C932E93D79721A130E0DE
:1015400064E0220F331F6A95E1F7280F391FDA96FE
:101550003C932E93D99726A130E054E0220F331FFD
:101560005A95E1F7280F391FDC963C932E93DB97B1
:1015700027A130E044E0220F331F4A95E1F7280FFE
:10158000391FDE963C932E93DD9776964696BF01E3
:101590004AE250E00E946F0E8091510290915202F7
:1015A000C396F40160810E94390F8091510290919D
:1015B0005202C4960E94C90E90E034E0880F991F31
:1015C0003A95E1F72091510230915202F4014081A5
:1015D000820F931FB30150E00E946F0EC601DF918E
:1015E000CF911F910F91FF90EF90DF90CF90BF9020
:1015F000AF909F908F907F906F900895EF92FF92A1
:101600000F931F93DF93CF930F92CDB7DEB7E09088
:10161000B202F090B3028091510290915202019671
:101620000E94C90E182F80915102909152020E947F
:10163000C90E312F20E090E0282B392BF70136839B
:101640002583E091B202F091B30227813085858134
:10165000968128233923368325832115310509F402
:101660006BC120FF02C00E94A600E091B202F0917F
:10167000B3028581968194FF13C00E941B02809162
:10168000510290915202039660E10E94390FE0915D
:10169000B202F091B302858196819F7E9683858305
:1016A000E091B202F091B3028581968193FF45C02B
:1016B000977F96838583198280915102909152027F
:1016C0008F960E94C90EF82E0091B2021091B302BB
:1016D0000D5E1F4F8091510290915202C0960E9460
:1016E000C90E682F70E024E0660F771F2A95E1F796
:1016F0008091510290915202680F791FC8014F2DBD
:1017000050E00E943F0E8091B2029091B302439646
:101710006F2D0E94080320915102309152020197CF
:1017200019F4C9010E9602C0C9010F960E94C90E94
:1017300089838981813009F4BFCFE091B202F091B1
:10174000B3028581968192FF69C09B7F96838583D2
:1017500019828091510290915202C1960E94C90E45
:10176000F82E0091B2021091B3020D5E1F4F8091CE
:10177000510290915202C2960E94C90E682F70E0E9
:1017800094E0660F771F9A95E1F78091510290914E
:101790005202680F791FC8014F2D50E00E943F0E82
:1017A0008091B2029091B30243966F2D0E94DC01AA
:1017B0008130910579F08130910520F1029751F542
:1017C0008091B2029091B30243966F2D0E94420322
:1017D000019731F08091510290915202419617C0C9
:1017E0000E942A068091510290915202C3966F2D59
:1017F0000E94390F8091510290915202089660E147
:101800000E94390F809151029091520240960E949D
:10181000C90E89838981813009F49BCFE091B2029E
:10182000F091B302858183FF02C00E94BC00E09169
:10183000B202F091B302858181FF0AC0809151020A
:101840009091520204960E94C90E80730E94A700D4
:10185000E091B202F091B3028581968195FF02C0BA
:101860000E94B200E091B202F091B30285819681AC
:1018700090FF09C08091510290915202CC960E9433
:10188000C90E0E94BE000091B2021091B302F8018D
:101890008581968191FF29C08091510290915202D9
:1018A0008E960E94C90E682F70E084E0660F771F45
:1018B0008A95E1F78091510290915202680F791F49
:1018C000C801439644E050E00E943F0E8091B2026E
:1018D0009091B30243960E94BF0080915102909173
:1018E000520244960E94C90E8983E091B202F0919F
:1018F000B302858182FF02C00E94BD008091510227
:1019000090915202E091B202F091B3020296658189
:101910000E94390F8091510290915202E091B202DF
:10192000F091B302668103960E94390FE091B202F2
:10193000F091B302168215820F90CF91DF911F9123
:101940000F91FF90EF90089584B1856084B9EAE02B
:10195000F1E0808182608083089540E027E030E0FC
:10196000682F70E055E0CB01022E02C09595879557
:101970000A94E2F7982F990F841711F02A9A01C060
:101980002A9880910B01826080930B01852F8A95A4
:10199000F1F780910B018D7F80930B01852F8A9544
:1019A000F1F7215030408FEF2F3F380711F0492FCA
:1019B000DACF21E030E040E055E080910B01826019
:1019C00080930B0183B1440F90E063E09695879577
:1019D0006A95E1F78170480F852F8A95F1F780911C
:1019E0000B018D7F80930B01852F8A95F1F72F5F77
:1019F0003F4F2930310509F7842F089540E027E053
:101A000030E0682F70E055E0CB01022E02C09595C2
:101A100087950A94E2F7982F990F841711F02A9A64
:101A200001C02A9880910B01826080930B01852F61
:101A30008A95F1F780910B018D7F80930B01852FA3
:101A40008A95F1F7215030408FEF2F3F380711F082
:101A5000492FDACF089540E021E030E055E0809151
:101A60000B01826080930B01852F8A95F1F783B17A
:101A7000440F90E073E0969587957A95E1F7817031
:101A8000480F80910B018D7F80930B01852F8A95E4
:101A9000F1F72F5F3F4F2930310509F7842F089563
:101AA000289A089528980895FC0190818181808367
:101AB00091830895582F40E0292F30E0422B532B7B
:101AC000CA010895DF93CF93CDB7DEB728970FB63D
:101AD000F894DEBF0FBECDBF6D837E838F83988762
:101AE000FE0135966381728181819D8128960FB6B2
:101AF000F894DEBF0FBECDBFCF91DF910895FC01FA
:101B000030819381218182819083818322833383F9
:101B1000089584B5836884BD85B5836085BD279AA3
:101B2000089587BD08958091090290910A02892B3A
:101B300039F080E18093010110920A0210920902AB
:101B40008091020180618093020180E49CE9019709
:101B5000F1F7809102018F7E809302010895E2E007
:101B6000F1E080818061808380E49CE90197F1F756
:101B700080818F7E8083089580EA9FE00197F1F74E
:101B8000089580EA9FE00197F1F70895089580EAAB
:101B90009FE00197F1F7089580EA9FE00197F1F740
:101BA000089580EA9FE00197F1F7089580EA9FE0A9
:101BB0000197F1F70895EF92FF921F93CF93DF9370
:101BC0000E94930D8091020180618093020180E464
:101BD0009CE90197F1F7809102018F7E80930201C9
:101BE00084B1806C84B92F9A88E893E120E931E0D0
:101BF000F9013197F1F70197D9F72F980E94A40CBA
:101C00000E9476012F9A88E893E120E931E0F901FA
:101C10003197F1F70197D9F72F980E94890D2F9AE4
:101C200088E893E120E931E0F9013197F1F7019774
:101C3000D9F72F98C1E0D0E011E080E9E82E81E0EB
:101C4000F82E209729F01B5F1093AB021B3F50F03A
:101C500015501093AB02153018F4C1E0D0E002C06B
:101C6000C0E0D0E088EC90E0F7013197F1F7019700
:101C7000D9F78091AB0287BD0E94C100E2CFEF92FD
:101C8000FF920F931F93CF93DF93EC018B017A01A7
:101C90000E94A40C0E94520D83E00E94FE0C10933F
:101CA000B702812F0E94FE0C0093B702802F0E9482
:101CB000FE0C00E010E007C08091B7020E94AD0C5E
:101CC00089930F5F1F4FE016F106B0F70E94500D89
:101CD000DF91CF911F910F91FF90EF900895EF92B8
:101CE000FF920F931F93CF93DF938C01EB017A0147
:101CF0000E94A40C0E94520D82E00E94FE0C1093E0
:101D0000B702812F0E94FE0C0093B702802F0E9421
:101D1000FE0C01E010E005C089910E94FE0C0F5FEF
:101D20001F4FE016F106C0F70E94500DDF91CF91D2
:101D30001F910F91FF90EF900895FF920F931F93C3
:101D4000CF93DF938C01F62EEA010E94A40C0E942F
:101D5000520D82E00E94FE0C1093B702812F0E9468
:101D6000FE0C0093B702802F0E94FE0C01E010E0F1
:101D700005C08F2D0E94FE0C0F5F1F4FC017D107AB
:101D8000C0F70E94500DDF91CF911F910F91FF90EE
:101D900008950F931F938C010E94520D83E10E94BE
:101DA000FE0C1093B702812F0E94FE0C0093B70225
:101DB000802F0E94AD0C8093B4020E94500D809140
:101DC000B4021F910F910895CF93DF930E94930D5A
:101DD00080EA9FE00197F1F7809102018061809392
:101DE000020180E49CE90197F1F7809102018F7E66
:101DF00080930201C0E9D1E085E090E00E94C90E25
:101E00008F3ED1F72F9A80E197E2FE013197F1F7EB
:101E10000197D9F72F98F0CFAF92BF92CF92DF9270
:101E2000EF92FF921F93CF93DF935C016B017A01D6
:101E3000C0E0D0E010C0C5018C0F9D1F0E94C90EEC
:101E4000182FC6018C0F9D1F0E94C90E181711F084
:101E500081E005C02196CE15DF0568F380E0DF91B3
:101E6000CF911F91FF90EF90DF90CF90BF90AF90F8
:101E70000895FF920F931F93182F092FF62E0E949B
:101E8000A40C0E94520D82E10E94FE0C0093B70246
:101E9000802F0E94FE0C1093B702812F0E94FE0C2F
:101EA0008F2D0E94FE0C0E94500D1F910F91FF90EC
:061EB0000895F894FFCF35
:0E1EB600110300020001000000010001000005
:00000001FF
