:100000000C9472000C9491000C9491000C9491004B
:100010000C94C00D0C9491000C9491000C949100E0
:100020000C9491000C9491000C9491000C9491000C
:100030000C9491000C9491000C9491000C949100FC
:100040000C9491000C9491000C9491000C949100EC
:100050000C9491000C9491000C9491000C949100DC
:100060000C9491000C9491000C9491000C949100CC
:100070000C9491000C9491000C9491000C949100BC
:100080000C9491000C9491000C9491000C949100AC
:100090000C9491000C9491000C9491000C9491009C
:1000A0000C9491000C9491000C9491000C9491008C
:1000B0000C9491000C9491000C9491000C9491007C
:1000C0000C9491000C9491000C9491000C9491006C
:1000D0000C9491000C9491000C9491000C9491005C
:1000E0000C94910011241FBECFEFD1E2DEBFCDBF33
:1000F00012E0A0E0B2E0E0EEFEE100E00BBF02C0E3
:1001000007900D92AE30B107D9F712E0AEE0B2E041
:1001100001C01D92AC3BB107E1F70E94030F0C94A4
:100120006E0F0C940000FFCF0895803241F0E091F3
:10013000B502F091B6028081897F81608083089545
:100140008091A6029091A70280629093A70280936B
:10015000A6020895089508950895089508951F9397
:10016000DF93CF930F92CDB7DEB78091520290917B
:100170005302089660E20E94890E0E94A20AE09152
:10018000B502F091B602808180FF0CC01092AB02E4
:100190001092AA021092AD021092AC0280818E7F62
:1001A00082608083809152029091530205960E9452
:1001B000AE0E182F809152029091530204960E9425
:1001C000AE0E982F80FF04C0812F807F803E19F0F3
:1001D0001093B402FFCF892F8073803111F18032E8
:1001E00019F08823F1F015C0E091B502F091B60244
:1001F000808186708630A9F49091AE028091AF0222
:100200008093AC029093AD028CEA92E00E94C60407
:1002100008C0809152029091530204960E94AE0E43
:10022000FFCF8091A6029091A70285FF37C08F7DF6
:100230009093A7028093A602CE0101960E945204D9
:10024000BC01009759F1E091B502F091B602478DDB
:100250008AEA92E050E00E94EC0D2091AB02822FDE
:100260006AE00E94620F92B9822F64E60E94620FD8
:10027000892F6AE00E94620F88B9822F84568436E3
:1002800010F4449A08C0283C18F088B1806302C07A
:1002900088B18F7C88B98091AA0288BDE091B502AF
:1002A000F091B602808183FF18C09091AE028091D8
:1002B000AF028093AC029093AD028CEA92E00E9470
:1002C000C6040E94C202882341F0E091B502F09179
:1002D000B6028081877F846080830F90CF91DF9109
:1002E0001F910895EF92FF920F931F93DF93CF9387
:1002F000CDB7DEB7C150D1400FB6F894DEBF0FBE08
:10030000CDBF06EA12E088E0D8011D928A95E9F790
:100310001092530210925202E4E5F2E0F093A5022B
:10032000E093A4028FE092E09093B6028093B5022E
:1003300080E5DF011D928A95E9F7E091B502F09121
:10034000B60281E4DF011D928A95E9F7E091B502DA
:10035000F091B60281E080830E9429030E94390255
:100360000E9442020E949F0D0E941906019709F007
:100370004AC088E060E076EFA8014E5F5F4F0E94C0
:1003800008077C01CE01489666E170E04AEE50E035
:100390000E94EC0D8091520290915302C3960E94EC
:1003A000AE0E182F8091520290915302C4960E9473
:1003B000AE0E682F70E084E0660F771F8A95E1F734
:1003C0008091520290915302680F791FCE010196DD
:1003D000412F50E00E94EC0DB1E0EB16F10491F4D6
:1003E0000E94A50D0E940106CF5FDE4F0FB6F89464
:1003F000DEBF0FBECDBFCF91DF911F910F91FF9058
:10040000EF900895FFCFFFCFCF93DF93482F8091D8
:10041000A802681731F5A9EAB2E0842F9C01F9011E
:1004200020E030E008C09C918081981711F021E015
:1004300030E0319611968E2F841B8617A0F3232B64
:1004400081F480E090E00E94CF02EC0181309105C0
:1004500051F0E091B502F091B6028081886080830E
:1004600002C0C1E0D0E00E944102CE01DF91CF91F5
:10047000089581E08093A802809100028093A902F0
:100480000895089508950F931F930091B502109158
:10049000B602F80180818F7E80830E94ED03015CAB
:1004A0001F4FF801918380831F910F9108950F933F
:1004B0001F93CF93DF93182F022F982F80E0C62F22
:1004C000D0E0C82BD92B0E949306E091B502F091A1
:1004D000B60281859285C817D90761F1808184FDB4
:1004E00029C0CF010D96FC0186E0DF011D928A959F
:1004F000E9F71D3F11F040E001C042E0E091B50294
:10050000F091B602808180618083CF010D9660E01A
:10051000202F0E94E9049C01E091B502F091B602FF
:100520008130910519F4D287C18706C080818F7E02
:10053000808302C022E030E0C901DF91CF911F919A
:100540000F9108950F931F930091B5021091B60279
:100550000E94ED03015C1F4FF80191838083E091BD
:10056000B502F091B602FF9680819181892B61F3EB
:1005700088EF68EF40E050E020E00E9457021F91B2
:100580000F9108958FEF60E040E050E020E00E947E
:10059000570220E0019709F421E0822F0895FF928D
:1005A0000F931F93082FF92E10E00DC08DEF62E21C
:1005B00040E050E020E00E945702019721F4802F94
:1005C0009F2D9C0105C01F5F1B3081F721E030E0AB
:1005D000C9011F910F91FF900895FF920F931F93F0
:1005E000082FF92E10E00DC08CEF60E040E050E0E5
:1005F00020E00E945702019721F4802F9F2D9C013B
:1006000005C01F5F1B3081F72CE130E0C9011F914D
:100610000F91FF900895FF920F931F93082FF92ECB
:1006200010E00DC08BEF60E040E050E020E00E9461
:100630005702019721F4802F9F2D9C0105C01F5F59
:100640001B3081F72CE130E0C9011F910F91FF9021
:100650000895E091B502F091B602168E158E0895B8
:10066000CF93DF93E091B502F091B602168E158E0E
:100670006A3019F0C6E1D0E00FC0FC0190852185F9
:100680008781887F39F4992329F4222319F4C1E062
:10069000D0E002C0C2E2D0E08091520290915302B9
:1006A00004960E94AE0E8073803221F4C130D105D1
:1006B00049F40CC0C130D10529F481E090E00E94DA
:1006C0000B0303C0CE010E94ED02EC01CE01DF91CD
:1006D000CF9108950F931F93CF93DF93DC01162FD3
:1006E000C091B502D091B602613009F057C060E008
:1006F00070E00FEF3C91432F50E0CA01807390707F
:10070000892BA1F0832F8F708F5F35FF07C036FDD7
:1007100002C0982F02C0982F990F690F44FF03C0A1
:1007200046FD880F780F119621E026C037FD02C0E4
:1007300020E00AC011968C911197982F9F739F5FAC
:1007400086FD990F690F21E046FF0BC02F5FFD0169
:10075000E20FF11D8081982F9F739F5F86FD990F97
:10076000790F832F8F708F3029F08F5F280FA20FA2
:10077000B11D02C008A30F8F121B09F0BBCF73304D
:1007800010F4633030F08FEF88A38F8F22E130E0D8
:100790000AC078A36F8F21E030E005C08FEF88A3F7
:1007A0008F8F28E130E0C901DF91CF911F910F9128
:1007B000089581E00895E091B502F091B60221A17B
:1007C00032A1309521953F4F83A194A1281B390B6D
:1007D0002056304FC901089508958091520290919A
:1007E00053020C960E94AE0E282F30E0C901837090
:1007F0009070019739F4E091B502F091B60223AD03
:1008000034AD0EC02C7030702430310519F020E06A
:1008100030E006C0E091B502F091B60225AD36ADEC
:10082000C9010895E091B502F091B60283AD94AD8F
:1008300003960E94AE0E8F3F49F4E091B502F0910D
:10084000B60285AD96AD03960E94AE0E08958091D6
:1008500052029091530208960E94AE0E90E080736F
:1008600090708032910579F08033910599F040972E
:1008700019F020E030E014C0E091B502F091B6022A
:1008800025A936A90DC0E091B502F091B60227A9BD
:1008900030AD06C0E091B502F091B60221AD32ADA7
:1008A000C90108950F931F938C018091520290917A
:1008B00053020B960E94AE0E8C70F80180838091DB
:1008C0005202909153020A960E94AE0E90E08073FD
:1008D00090708032910579F08033910599F04097BE
:1008E00019F020E030E014C0E091B502F091B602BA
:1008F00027A530A90DC0E091B502F091B60221A95B
:1009000032A906C0E091B502F091B60223A934A93C
:10091000C9011F910F910895CF93DF93EC011982C4
:100920001882809152029091530205960E94AE0E59
:1009300090E0807F9070803C910591F0813C910522
:1009400024F4803B9105C9F407C0803D910561F016
:10095000803E910591F40CC08881998190610BC013
:1009600088819981906207C088819981906403C0D1
:100970008881998190689983888386E08A8381E061
:100980008B8381E18C83DF91CF9108950F931F9327
:10099000DF93CF930F92CDB7DEB78C010E9427046F
:1009A000009789F0E091B502F091B60240A1B8013C
:1009B00050E00E94230E80915202909153020996BA
:1009C0000E94AE0E89830F90CF91DF911F910F91FE
:1009D0000895CF92DF92FF920F931F93CF93DF93EF
:1009E0006C01062FF42E122FC091B502D091B602E1
:1009F000EF9688819981892B21F40E94ED039983D8
:100A00008883C091B502D091B602EF968881998112
:100A1000892B09F49DC08091520290915302049653
:100A20000E94AE0E8073803271F4113061F48091B7
:100A300052029091530204960E94AE0E82FF03C0B0
:100A4000C2E6D0E002C0C1E0D0E0002319F0C5E664
:100A5000D0E084C0C130D10509F080C081E0F81633
:100A600019F4C6E6D0E07AC00091B5021091B60242
:100A700080915202909153020C960E94AE0E282F44
:100A800030E0C901837090700197D9F4E091B5020C
:100A9000F091B60283AD94AD0696B60140E050E009
:100AA0000E94230E8091520290915302849666E038
:100AB0000E94890EE091B502F091B60283AD94AD2B
:100AC0001FC02C70307024303105E9F4E091B5027C
:100AD000F091B60285AD96AD0696B60140E050E0C5
:100AE0000E94230E8091520290915302859666E0F7
:100AF0000E94890EE091B502F091B60285AD96ADE7
:100B00006F2D0E94890E80915202909153020D9692
:100B10000E94AE0E90E0837090708130910529F0B4
:100B2000029751F080E090E00DC0E091B502F091A5
:100B3000B60283AD94AD06C0E091B502F091B60265
:100B400085AD96AD015C1F4FF8019183808306C08F
:100B50000E94ED0399838883C4E6D0E0CE01DF9143
:100B6000CF911F910F91FF90DF90CF9008951F9329
:100B70008091520290915302089664E00E94890E7F
:100B800010E00CC0809152029091530204960E9492
:100B9000AE0E80FD03C021E030E005C01F5F1B30BA
:100BA00089F720E130E0C9011F9108958091520238
:100BB00090915302E091B502F091B6024A96678D8A
:100BC0000E94890E8091520290915302E091B502E9
:100BD000F091B6024E9660A10E94890E0895809110
:100BE000520290915302089664E00E94890E80910F
:100BF00052029091530204960E94AE0E80FDF7CFF0
:100C000008950F931F93809152029091530208967A
:100C100061E00E94890E0091B5021091B6020E9417
:100C2000ED03015C1F4FF801918380831F910F91A9
:100C300008958F929F92AF92BF92CF92DF92EF92E0
:100C4000FF920F931F93CF93DF9380915202909165
:100C500053020C9665E80E94890EE0905202F090D3
:100C6000530226E130E0E20EF31EC0E0D0E087013F
:100C70000F5F1F4FC7016D2F0E94890E82E090E029
:100C8000E80EF91EC8016C2F0E94890E219697E08C
:100C9000C53FD90761F7E0905202F090530226E178
:100CA00030E0E20EF31E21E0A22EB12CCC24DD2494
:100CB00090E4892E9CE9992E87010F5F1F4FC70191
:100CC0000E94AE0ED82FC0E082E090E0E80EF91E40
:100CD000C8010E94AE0E9E01280F311D2C153D0546
:100CE00059F02F9AC4010197F1F72F98C401019789
:100CF000F1F784EFA82EB12C34EFC31637E0D306FA
:100D000021F00894C11CD11CD7CFC501DF91CF9130
:100D10001F910F91FF90EF90DF90CF90BF90AF9019
:100D20009F908F900895E091B502F091B602808176
:100D300084FF13C0809152029091530201960E9449
:100D4000AE0E84FF0AC00E9443028091520290912D
:100D50005302039660E10E94890E08950F931F933A
:100D6000DF93CF9300D000D0CDB7DEB78C01609178
:100D70005202709153026450704FCE01019644E0CC
:100D800050E00E94EC0D8A81F80180838981818383
:100D90008C8182838B8183830F900F900F900F90B3
:100DA000CF91DF911F910F910895EF92FF920F93D2
:100DB0001F93DF93CF9300D000D0CDB7DEB78C0167
:100DC0007B0160915202709153026450704FCE01CA
:100DD000019644E050E00E94EC0D9A8180E0298168
:100DE000820F911DF801918380839C8180E02B818B
:100DF000820F911DF701918380830F900F900F90C8
:100E00000F90CF91DF911F910F91FF90EF90089578
:100E10006F927F928F929F92AF92BF92CF92DF920A
:100E2000EF92FF920F931F93CF93DF93F82ED62E5E
:100E3000E72E4A01809152029091530204960E943B
:100E4000AE0E80FF04C0E0E1CE2ED12C6BC38091AA
:100E50005202909153020C9665E80E94890E80918F
:100E6000520290915302469660E04AEE5FE00E9483
:100E7000570EE091B502F091B60282E09DE39087B3
:100E8000878382E087A3E091B502F091B60280A744
:100E9000E091B502F091B6028AE081A7E091B50237
:100EA000F091B60286E082A7E091B502F091B60219
:100EB00001E003A7E091B502F091B60214A6E0911B
:100EC000B502F091B60280EA9FE096A785A7E0916F
:100ED000A402F091A5021082E091A402F091A50273
:100EE0001182E091A402F091A5021FEF1283E0911C
:100EF000A402F091A5021383E091A402F091A5024F
:100F00001187809152029091530260E00E94890EF5
:100F10008091520290915302019660E00E94890EE6
:100F2000809152029091530202966FEF0E94890EB7
:100F3000809152029091530203966FEF0E94890EA6
:100F4000809152029091530209966FEF0E94890E90
:100F5000E091A402F091A50283E28783E091A402CC
:100F6000F091A50280EC8683E091A402F091A502A5
:100F700085E88487E091A402F091A502128A80910D
:100F8000520290915302079663E20E94890E80916B
:100F9000520290915302069660EC0E94890E809155
:100FA0005202909153020C9665E80E94890E80913E
:100FB000520290915302429660E00E94890EE091A5
:100FC000A402F091A50292EC9583E091A402F09125
:100FD000A5028DEF8483E091B502F091B60295A34E
:100FE000E091B502F091B60286A3809152029091F1
:100FF0005302059662EC0E94890E809152029091F4
:10100000530204966DEF0E94890EE091A402F091C4
:10101000A50280E18287E091A402F091A5028BE015
:10102000838780915202909153020A9660E10E9458
:10103000890E80915202909153020B966BE00E94B0
:10104000890EE091A402F091A502018FE091A40223
:10105000F091A502108FE091A402F091A50284E026
:10106000878B8091520290915302805C9F4F6FEF6B
:101070000E94890EE091A402F091A50211AFE091C7
:10108000A402F091A502E3AEE091A402F091A502C2
:10109000D2AE8F2D81508E3720F071E1C72ED12C2A
:1010A00041C2E091A402F091A502F68A34010894AD
:1010B000611C711CC301F40160810E946A036C0110
:1010C0008130910509F02EC2E091B502F091B6028F
:1010D00080A5853F20F063E1C62ED12C28C087A1D2
:1010E000853F20F054E1C52ED12C21C082A5865029
:1010F0008F3E20F045E1C42ED12C19C081A5875028
:101100008E3E20F036E1C32ED12C11C083A5815034
:10111000843F20F028E1C22ED12C09C084A5882369
:1011200031F08450813F18F097E1C92ED12CE09125
:10113000A402F091A502878184FF03C08DE1C82E2F
:10114000D12C15AE81E0C816D10409F0EBC1E091B5
:10115000B502F091B60280A5482F50E0415F5F4F85
:10116000407F87A1A82FB0E01F96A07F82A5082FFF
:1011700010E0015F1F4F007F81A5C82FD0E02F96A0
:10118000C07F83A5682F70E0615F7F4F607F84A57B
:10119000E82EFF248FE090E0E80EF91E80EF9FEF2D
:1011A000E822F9225701E616F70608F45B01CD01A3
:1011B000840F951F9C01220F331F280F391F81A117
:1011C00092A1820F931F92A381A3E091B502F091A7
:1011D000B6029801220F331F81A192A1820F931FA3
:1011E0009E01220F331F820F931F9B01220F331F7B
:1011F000820F931F8E0D9F1D8A0D9B1D92A381A3AD
:1012000025A536A52817390730F412A211A22AE124
:10121000C22ED12C87C1E091A402F091A50285E0F5
:10122000838FE091A402F091A50294E05695479532
:101230009A95E1F7942F838D840F848FE091A40217
:10124000F091A502848D840F858FE091A402F09126
:10125000A502858D980F978FE091A402F091A502C9
:1012600084E0B695A7958A95E1F79A2F878D8A0F26
:1012700080A3E091A402F091A50280A18A0F81A32E
:10128000E091A402F091A50281A1980F96A3E091AC
:10129000A402F091A502B4E016950795BA95E1F77E
:1012A000902F86A1800F87A3E091A402F091A50260
:1012B00087A1980F92ABE091A402F091A502A4E05F
:1012C00076956795AA95E1F7962F82A9860F84AB4C
:1012D000E091A402F091A50284A9980F90ABE0914F
:1012E000A402F091A50286E082A7E091A402F09109
:1012F000A50274E0D695C7957A95E1F79C2F80A951
:101300008C0F83A7E091A402F091A50283A5980F0A
:1013100094A7E091A402F091A50216A6EF2869F027
:10132000E091A402F091A502950164E0369527951D
:101330006A95E1F784A5820F86A7A091A402B091D7
:10134000A502E091B502F091B602878D5A968C9372
:10135000A091A402B091A502E091B502F091B6026D
:1013600080A15E968C93E091A402F091A50286E0A4
:1013700084A3E091A402F091A50285A3A091A40208
:10138000B091A502E091B502F091B60283A5D19685
:101390008C93A091A402B091A502E091B502F091C6
:1013A000B60281A59F968C93A091A402B091A5024C
:1013B000E091B502F091B60284A59D968C93A09120
:1013C000A402B091A502E091B502F091B60281A508
:1013D00098968C93E091A402F091A5029501253F87
:1013E000310510F024EF30E021A780915202909156
:1013F0005302A091B502B091B602E091A402F0911F
:10140000A502238D30E054E0220F331F5A95E1F7F7
:10141000280F391FD0963C932E939F97248D30E050
:1014200044E0220F331F4A95E1F7280F391FD29667
:101430003C932E93D197258D30E004E0220F331F8B
:101440000A95E1F7280F391FD4963C932E93D39732
:10145000278D30E014E0220F331F1A95E1F7280F93
:10146000391FD6963C932E93D59720A130E074E097
:10147000220F331F7A95E1F7280F391FD8963C9336
:101480002E93D79721A130E064E0220F331F6A9595
:10149000E1F7280F391FDA963C932E93D99726A1AE
:1014A00030E054E0220F331F5A95E1F7280F391F1F
:1014B000DC963C932E93DB9727A130E044E0220F8B
:1014C000331F4A95E1F7280F391FDE963C932E9380
:1014D000DD9776964696BF014AE250E00E94230EC1
:1014E0008091520290915302C396F40160810E9450
:1014F000890E8091520290915302C4960E94AE0EC2
:1015000090E034E0880F991F3A95E1F7209152025C
:1015100030915302F4014081820F931FB30150E0D8
:101520000E94230EC601DF91CF911F910F91FF9072
:10153000EF90DF90CF90BF90AF909F908F907F9073
:101540006F900895EF92FF920F931F93DF93CF93C5
:101550000F92CDB7DEB7E090B502F090B602809161
:1015600052029091530201960E94AE0E182F809164
:101570005202909153020E94AE0E312F20E090E073
:10158000282B392BF70136832583E091B502F091A2
:10159000B6022781308585819681282339233683B9
:1015A00025832115310509F46BC120FF02C00E947B
:1015B0009400E091B502F091B6028581968194FF86
:1015C00013C00E94430280915202909153020396ED
:1015D00060E10E94890EE091B502F091B60285812A
:1015E00096819F7E96838583E091B502F091B60245
:1015F0008581968193FF45C0977F96838583198265
:1016000080915202909153028F960E94AE0EF82E56
:101610000091B5021091B6020D5E1F4F80915202EB
:1016200090915302C0960E94AE0E682F70E024E0A5
:10163000660F771F2A95E1F780915202909153022D
:10164000680F791FC8014F2D50E00E94EC0D80916A
:10165000B5029091B60243966F2D0E9430032091FF
:10166000520230915302019719F4C9010E9602C03B
:10167000C9010F960E94AE0E89838981813009F4D9
:10168000BFCFE091B502F091B6028581968192FFBD
:1016900069C09B7F968385831982809152029091C5
:1016A0005302C1960E94AE0EF82E0091B502109121
:1016B000B6020D5E1F4F8091520290915302C29666
:1016C0000E94AE0E682F70E094E0660F771F9A9527
:1016D000E1F78091520290915302680F791FC8017F
:1016E0004F2D50E00E94EC0D8091B5029091B60212
:1016F00043966F2D0E9404028130910579F081306C
:10170000910520F1029751F58091B5029091B602B2
:1017100043966F2D0E946A03019731F08091520227
:1017200090915302419617C00E94D60580915202B3
:1017300090915302C3966F2D0E94890E80915202A0
:1017400090915302089660E10E94890E80915202A6
:101750009091530240960E94AE0E89838981813018
:1017600009F49BCFE091B502F091B602858183FF29
:1017700002C00E94AA00E091B502F091B6028581F4
:1017800081FF0AC0809152029091530204960E94F8
:10179000AE0E80730E949500E091B502F091B60202
:1017A0008581968195FF02C00E94A000E091B5025C
:1017B000F091B6028581968190FF09C08091520216
:1017C00090915302CC960E94AE0E0E94AC00009104
:1017D000B5021091B602F8018581968191FF29C06A
:1017E00080915202909153028E960E94AE0E682F05
:1017F00070E084E0660F771F8A95E1F780915202CE
:1018000090915302680F791FC801439644E050E05D
:101810000E94EC0D8091B5029091B60243960E9411
:10182000AD00809152029091530244960E94AE0EF8
:101830008983E091B502F091B602858182FF02C0F2
:101840000E94AB008091520290915302E091B50248
:10185000F091B602029665810E94890E8091520233
:1018600090915302E091B502F091B6026681039621
:101870000E94890EE091B502F091B602168215829F
:101880000F90CF91DF911F910F91FF90EF900895EE
:1018900084B1876084B9239881E58CBD08958EBD9D
:1018A0000DB407FEFDCF08951EBC0DB407FEFDCF9D
:1018B0008EB508958EBD0DB407FEFDCF1EBC0DB4D0
:1018C00007FEFDCF8EB50895FC019B018617970793
:1018D00028F09A01E417F50708F49F01C90108955B
:1018E00028980895289A0895E1E0F1E080818160C8
:1018F0008083E9E6F0E0808180688083EB9A7894C9
:10190000089531E020E08091030180FFFCCF8091B9
:101910000001220F932F9F5F81FD2F5F392F809150
:10192000030180FDFCCF993070F3822F089561E0B0
:1019300070E040E050E08091030180FFFCCF809197
:101940000001440F551F9B012F5F3F4F81FF02C0D5
:101950004F5F5F4FB9018091030180FDFCCF2131C2
:10196000310548F3CA01089509C0809102018D7FB5
:10197000809302018091030180FDFCCF80910301DF
:1019800080FFFCCFF2CF8AB18D608AB9089540E024
:1019900027E030E0682F70E0E0E4FCE9CB01022EA4
:1019A00002C0959587950A94E2F7582F550F841732
:1019B00011F0589A01C058985A9ACF010197F1F73F
:1019C0005A98CF010197F1F7215030408FEF2F3F08
:1019D000380711F0452FE2CF40E021E030E060E42D
:1019E0007CE95A9A89B1440F90E096958795817069
:1019F000480FCB010197F1F75A98CB010197F1F706
:101A00002F5F3F4F2930310561F7842F089540E063
:101A100027E030E0682F70E0A0E9B1E0CB01022EB2
:101A200002C0959587950A94E2F7582F550F8417B1
:101A300011F0589A01C058985A9A84EF91E0FD012C
:101A40003197F1F70197D9F75A9884EF91E0FD01AA
:101A50003197F1F70197D9F7215030408FEF2F3FA1
:101A6000380711F0452FDACF089521E030E040E04B
:101A70005A9A89B1440F90E0969587958170480FE6
:101A80005A982F5F3F4F2930310591F7842F0895E1
:101A90005B9A08955B980895FC0190818181808311
:101AA00091830895582F40E0292F30E0422B532B8B
:101AB000CA010895DF93CF93CDB7DEB728970FB64D
:101AC000F894DEBF0FBECDBF6D837E838F83988772
:101AD000FE0135966381728181819D8128960FB6C2
:101AE000F894DEBF0FBECDBFCF91DF910895FC010A
:101AF000308193812181828190838183228333830A
:101B0000089584B5836A84BD85B5836085BD279AB1
:101B10009D9A089587BD08958091090290910A02C7
:101B2000892B39F080E18093010110920A02109212
:101B30000902809102018061809302010895E2E030
:101B4000F1E080818F7E80830895E9E6F0E0808176
:101B500080688083EB9A78940895F89408950895A6
:101B60000895E9E6F0E0808180688083EB9A7894BC
:101B70000895F894089580EA9FE00197F1F7089599
:101B80001F920F920FB60F920BB60F9211242F9344
:101B90003F934F935F936F937F938F939F93AF93F5
:101BA000BF93EF93FF930E94970C9093AF028093A3
:101BB000AE02FF91EF91BF91AF919F918F917F9175
:101BC0006F915F914F913F912F910F900BBE0F90AE
:101BD0000FBE0F901F901895EF92FF920F931F93D7
:101BE000CF93DF937C018B01EA01F8940E94700C83
:101BF00083E00E944F0C1093BB02812F0E944F0C78
:101C00000093BB02802F0E944F0C00E010E008C040
:101C10000E94540CF701E00FF11F80830F5F1F4FEC
:101C20000C171D07A8F30E94720C80916900806850
:101C300080936900EB9A7894DF91CF911F910F9177
:101C4000FF90EF900895EF92FF920F931F93CF9321
:101C5000DF938C01EB017A01F8940E94700C82E012
:101C60000E944F0C1093BB02812F0E944F0C0093D7
:101C7000BB02802F0E944F0C00E010E005C089914C
:101C80000E944F0C0F5F1F4F0E151F05C0F30E94DF
:101C9000720C80916900806880936900EB9A789457
:101CA000DF91CF911F910F91FF90EF900895FF92D8
:101CB0000F931F93CF93DF938C01F62EEA01F894D4
:101CC0000E94700C82E00E944F0C1093BB02812F87
:101CD0000E944F0C0093BB02802F0E944F0C00E02B
:101CE00010E005C08F2D0E944F0C0F5F1F4F0C1787
:101CF0001D07C0F30E94720C809169008068809378
:101D00006900EB9A7894DF91CF911F910F91FF902A
:101D10000895FF920F931F938C01F62EF8940E9462
:101D2000700C82E10E944F0C1093BB02812F0E9425
:101D30004F0C0093BB02802F0E944F0C8F2D0E94EE
:101D40004F0C0E94720CE9E6F0E08081806880838D
:101D5000EB9A78941F910F91FF9008950F931F9322
:101D60008C01F8940E94700C83E10E944F0C109338
:101D7000BB02812F0E944F0C0093BB02802F0E9458
:101D80005A0C8093B7020E94720CE9E6F0E0808161
:101D900080688083EB9A78948091B7021F910F91AD
:101DA00008950E948C0D80EA9FE00197F1F78091E1
:101DB00002018F7E8093020185E090E00E94AE0ECA
:101DC0008F3EA9F42F9A80E197E220E931E0F901F2
:101DD0003197F1F70197D9F72F9880ED97E020E937
:101DE00031E0F9013197F1F70197D9F708952F9A6A
:101DF00088EE93E020E931E0F9013197F1F701979E
:101E0000D9F72F980895CF93DF930E948C0D80E22D
:101E10009EE40197F1F7809102018F7E8093020189
:101E2000279A9A9A239A8FE081B98FE387B95B9AB0
:101E30000E94480C0E94740C0E94D10E0E947201F4
:101E40000E94810D80E880930D0287BDC0E9D1E03A
:101E500080910D0287BDF894A29A0E94AF00A298CB
:101E60007894CE010197F1F7F3CFAF92BF92CF9262
:101E7000DF92EF92FF921F93CF93DF935C016B0190
:101E80007A01C0E0D0E010C0C5018C0F9D1F0E94F8
:101E9000AE0E182FC6018C0F9D1F0E94AE0E181794
:101EA00011F081E005C02196CE15DF0568F380E0D2
:101EB000DF91CF911F91FF90EF90DF90CF90BF9077
:101EC000AF900895991B79E004C0991F961708F008
:101ED000961B881F7A95C9F780950895F894FFCFCF
:0E1EE000310300020001000000010001006457
:00000001FF
